:10000000A9C00000C6C00000C4C00000C2C00000FB
:10001000C0C00000BEC00000BCC00000BAC00000EC
:10002000B8C00000B6C00000B4C00000B2C00000FC
:10003000B0C00000AEC00000ACC00000AAC000000C
:10004000A8C00000A6C00000A4C00000A2C000001C
:10005000A0C000009EC000009CC000009AC000002C
:1000600098C0000096C0000094C0000092C000003C
:1000700090C000008EC000008CC000008AC000004C
:1000800088C0000086C0000084C0000082C000005C
:1000900080C000007EC000007CC000007AC000006C
:1000A00078C0000076C0000074C0000072C000007C
:1000B00070C000006EC000006CC000006AC000008C
:1000C00068C0000066C0000064C0000062C000009C
:1000D00060C000005EC000005CC000005AC00000AC
:1000E00058C00000B801BC01BC01BC01AC01BC019E
:1000F000A0019401BC01BC01BC01BC01BC01BC015C
:10010000BC01BC01BC01BC01BC01BC01BC01BC0107
:10011000BC01BC01BC01BC01BC01BC01BC01BC01F7
:10012000BC01BC01B401BC01BC01BC01A801BC0103
:100130009C019001BC01BC01BC01BC01BC01BC0123
:10014000BC01BC01B001BC01BC01BC01A401BC01EB
:1001500098018C0111241FBECFEFD1E2DEBFCDBFCD
:1001600000E00CBF12E0A0E0B2E0ECE4F4E000E05C
:100170000BBF02C007900D92A231B107D9F722E060
:10018000A2E1B2E001C01D92A331B207E1F7FED0B7
:100190005BC136CF87E690E09093C5008093C400A2
:1001A00088E98093C1000895E0ECF0E0908195FF2C
:1001B000FDCF8093C6000895CF93DF93EC01888133
:1001C000882331F0219690E0EFDF89918111FBCFF8
:1001D000DF91CF9108958F929F92AF92BF92EF924D
:1001E000FF920F931F93CF93DF9300D01F921F9224
:1001F000CDB7DEB78E010F5F1F4F7E0126E0E20E06
:10020000F11C0F2EFAE08F2E912CA12CB12CF02D89
:1002100004C08D81803381F01AC0A5019401EAD019
:10022000605DF80161938F01622F732F842F952FEA
:10023000EE15FF0591F7EDCF8C818033B9F48B81FA
:100240008033B1F48A818033A9F410E001C014E056
:10025000E1E0F0E0EC0FFD1FE10FF11D17FDFA9555
:10026000808190E0A1DF11509AF706C013E0F0CF33
:1002700012E0EECF11E0ECCF0F900F900F900F90A7
:100280000F90DF91CF911F910F91FF90EF90BF9052
:10029000AF909F908F9008954FE030EF21E050E0B5
:1002A00047B98FE99FE00197F1F700C0000038B926
:1002B0008FE99FE00197F1F700C0000086B1922F0F
:1002C000803F09F4952F992309F458C090911202A8
:1002D000992309F453C086B1E6B180E787B98FE965
:1002E0009FE00197F1F700C000008FE888B98FE91F
:1002F0009FE00197F1F700C0000086B1E82B8E2F38
:1003000090E0FC01E75BF109E833F105A8F58827E7
:10031000EE58FF4F8F4F90C01092120281E3089564
:100320001092120282E308951092120283E308955C
:100330001092120284E308951092120285E3089548
:100340001092120286E308951092120287E3089534
:100350001092120288E308951092120289E3089520
:10036000109212028AE008951092120280E308951A
:100370001092120283E2089580E00895803F19F4FC
:10038000209312028DCF509312028ACF03DF00E038
:1003900010E083E092E010DFC4E0D0E0E02EF12E28
:1003A0007BDF90E09701220F331FB701660F771FA5
:1003B000660F771F660F771F620F731F60537109F7
:1003C0007C01E60EF71EF0DE219751F780E192E006
:1003D000F3DEB70180E090E0FEDE80E192E0ECDE4B
:1003E0002FEF83ED90E3215080409040E1F700C073
:1003F0000000CFCFA1E21A2EAA1BBB1BFD010DC02E
:10040000AA1FBB1FEE1FFF1FA217B307E407F507C4
:1004100020F0A21BB30BE40BF50B661F771F881FA0
:10042000991F1A9469F760957095809590959B0136
:10043000AC01BD01CF010895EE0FFF1F881F8BBFD8
:0C0440000790F691E02D1994F894FFCF7E
:10044C002566000A656E746572204E756D62657264
:02045C000A0094
:00000001FF
