S01900006E726632346C30312D7472616E736D69742E73726563F3
S113000071C000008EC000008CC000008AC00000D7
S113001088C0000086C0000084C0000082C00000C8
S113002080C000007EC000007CC000007AC00000D8
S113003078C0000076C0000074C0000072C00000E8
S113004070C000006EC000006CC000006AC00000F8
S113005068C0000066C0000064C0000062C0000008
S113006060C000005EC000005CC000005AC0000018
S113007058C0000056C0000054C0000052C0000028
S113008050C000004EC000004CC000004AC0000038
S113009048C0000046C0000044C0000042C0000048
S11300A040C000003EC000003CC000003AC0000058
S11300B038C0000036C0000034C0000032C0000068
S11300C030C000002EC000002CC000002AC0000078
S11300D028C0000026C0000024C0000022C0000088
S11300E020C0000011241FBECFEFD1E2DEBFCDBF80
S11300F000E00CBF12E0A0E0B2E0EAEBF1E000E0C7
S11301000BBF02C007900D92A030B107D9F722E0CF
S1130110A0E0B2E001C01D92A030B207E1F725D003
S11301204AC06ECF87E690E09093C5008093C400E8
S113013088E98093C100089584B1876084B98CB53F
S113014081658CBD8CB580628CBD8CB5837F8CBD84
S113015008958EBD0DB407FEFDCF08958FEF8EBDBB
S11301600DB407FEFDCF8EB50895DCDFE5DF2FEF7C
S113017081EE94E0215080409040E1F700C00000FF
S1130180289825E32A95F1F7000081E2E2DF85E370
S11301908A95F1F70000E2DF95E39A95F1F7000004
S11301A0289A2FEF81EE94E0215080409040E1F7AF
S10D01B000C00000DCCFF894FFCF7C
S9030000FC
