:1000000071C000008EC000008CC000008AC00000DB
:1000100088C0000086C0000084C0000082C00000CC
:1000200080C000007EC000007CC000007AC00000DC
:1000300078C0000076C0000074C0000072C00000EC
:1000400070C000006EC000006CC000006AC00000FC
:1000500068C0000066C0000064C0000062C000000C
:1000600060C000005EC000005CC000005AC000001C
:1000700058C0000056C0000054C0000052C000002C
:1000800050C000004EC000004CC000004AC000003C
:1000900048C0000046C0000044C0000042C000004C
:1000A00040C000003EC000003CC000003AC000005C
:1000B00038C0000036C0000034C0000032C000006C
:1000C00030C000002EC000002CC000002AC000007C
:1000D00028C0000026C0000024C0000022C000008C
:1000E00020C0000011241FBECFEFD1E2DEBFCDBF84
:1000F00000E00CBF12E0A0E0B2E0E0E7F9E000E0D1
:100100000BBF02C007900D92A63AB107D9F722E0C3
:10011000A6EAB2E001C01D92A63AB207E1F7B7D253
:1001200025C46ECF87E690E09093C5008093C4000D
:1001300088E98093C1000895E0ECF0E0908195FF9C
:10014000FDCF8093C6000895E0ECF0E08081882325
:10015000ECF78091C6000895CF93DF93EC0188817E
:10016000882331F0219690E0E7DF89918111FBCF60
:10017000DF91CF91089510928D0010928C00109213
:10018000AD001092AC001092AB001092AA00109239
:10019000A9001092A80010928B0010928A00089576
:1001A00080E49CE99093A9008093A8009093AB0011
:1001B0008093AA009093AD008093AC0090938B0045
:1001C00080938A0088E99AE390938D0080938C0055
:1001D00008950F931F93CF93DF9383E092E0BCDFEA
:1001E000CADF2FEF39E688E1215030408040E1F747
:1001F00000C0000005E010E0C1E0D1E0D1DF9AEAE4
:1002000026EE36E981E09150204030408040D9F719
:1002100000008881877F888388818F7E888388819A
:100220008F7D8883269827989AEA26EE36E981E022
:100230009150204030408040D9F7000084B1806E5A
:1002400084B98881886388839AEA26EE36E981E05A
:100250009150204030408040D9F7000001501109F2
:1002600069F69EDFDF91CF911F910F910895CF9393
:10027000DF9381DF84B1806E84B9C1E0D1E08881F1
:10028000886388832FEF39E648E1215030404040B1
:10029000E1F700C000008BE092E05EDF80E49CE9C3
:1002A0009093A9008093A80054E52DEC3DE243E033
:1002B0005150204030404040D9F700C000C00000FD
:1002C0002881277F28839093AB008093AA0054E570
:1002D0002DEC3DE243E05150204030404040D9F702
:1002E00000C000C0000028812F7E28839093AD00BD
:1002F0008093AC0054E52DEC3DE243E051502040AA
:1003000030404040D9F700C000C0000028812F7D58
:10031000288390938B0080938A0088E99AE39093D6
:100320008D0080938C0054E58DEC9DE223E05150CC
:10033000804090402040D9F700C000C000002698BF
:100340002798DF91CF9108958CE192E005DF13DFCC
:100350002FEF39E648E1215030404040E1F700C03E
:10036000000084B1806E84B9E1E0F1E080818863AF
:10037000808380E49CE990938B0080938A0028E935
:100380003AE330938D0020938C0054E52DEC3DE250
:1003900043E05150204030404040D9F700C000C0F9
:1003A0000000269827989093AD008093AC0054E508
:1003B0002DEC3DE243E05150204030404040D9F721
:1003C00000C000C0000020812F7D20839093AB00EF
:1003D0008093AA0054E52DEC3DE243E051502040CB
:1003E00030404040D9F700C000C0000020812F7E7F
:1003F00020839093A9008093A80054E58DEC9DE2A2
:1004000023E05150804090402040D9F700C000C008
:1004100000008081877F80833FEF41EE54E03150C0
:1004200040405040E1F700C000000895AF92BF92F5
:10043000CF92DF92EF92FF920F931F93CF93DF93B0
:100440008EE292E089DE97DE2FEF39E648E1215017
:1004500030404040E1F700C0000084B1806E84B9B4
:10046000E1E0F1E080818863808368EA70E080E405
:100470009CE9DB0111969C938E930F2EFAEAEF2EE6
:10048000F12CF02DD70111969C938E93B4E52DECB1
:100490003DE243E0B150204030404040D9F700C039
:1004A00000C0000020812F7E20832081277F2083B1
:1004B0000CEA10E0D80111969C938E93CAE8D0E024
:1004C000998388830F2EFCE8CF2ED12CF02D0F2E90
:1004D000F8E9AF2EFAE3BF2EF02DD6011196BC92AB
:1004E000AE92B4E52DEC3DE243E0B1502040304007
:1004F0004040D9F700C000C000002698279820810E
:100500002F7D208324B1206E24B92081286320838D
:10051000D70111969C938E93D80111969C938E933C
:10052000B4E52DEC3DE243E0B15020403040404086
:10053000D9F700C000C0000020812F7E20832081D9
:100540002F7D2083DB0111969C938E939983888362
:10055000D6011196BC92AE92B4E52DEC3DE243E09B
:10056000B150204030404040D9F700C000C00000EA
:10057000269827988081877F8083DF91CF911F9174
:100580000F91FF90EF90DF90CF90BF90AF900895C4
:100590004F925F926F927F928F929F92AF92BF9293
:1005A000CF92DF92EF92FF920F931F93CF93DF933F
:1005B0008FE392E0D1DDDFDD2FEF89E698E1215076
:1005C00080409040E1F700C0000084B1806E84B9A3
:1005D000E1E0F1E0808188638083C0E0D0E00F2E0D
:1005E000FCEAAF2EB12CF02D0F2EFAEACF2ED12C33
:1005F000F02D0F2EF8EAEF2EF12CF02D0AE810E086
:100600000F2EFCE88F2E912CF02DBE0180E090E0A3
:10061000BCD021E73DE34CE152E445D12B013C0144
:1006200088D0F50171836083F60171836083F701DF
:1006300071836083F8017183608320E030E040E0E3
:100640005FE3C301B2012FD174D0F40171836083E1
:10065000FFEF23EC89E0F15020408040E1F700C03B
:1006600000002196C11594E0D90779F6DF91CF916A
:100670001F910F91FF90EF90DF90CF90BF90AF90C0
:100680009F908F907F906F905F904F900895E0EAD9
:10069000F0E0808182608083A1EAB0E08C91886183
:1006A0008C938C9182608C9320E43CE93093A7007A
:1006B0002093A6008081886A8083E0E8F0E0808152
:1006C00082608083A1E8B0E08C9188618C938C91EA
:1006D00082608C9330938700209386008081886AA3
:1006E000808320DD83E592E037DD81E692E034DD32
:1006F00082E792E031DD83E892E02EDD84E992E04A
:100700002BDD67DD21DDC82F90E016DDC23359F007
:1007100018F4C13331F0F6CFC33339F0C43339F0B4
:10072000F1CFA5DDEFCF10DEEDCF80DEEBCF30DFF8
:10073000E9CF98D088F09F5790F0B92F9927B751FB
:10074000A0F0D1F0660F771F881F991F1AF0BA9595
:10075000C9F712C0B13081F09FD0B1E008959CC0BC
:10076000672F782F8827B85F39F0B93FCCF386958B
:1007700077956795B395D9F73EF4909580957095E8
:1007800061957F4F8F4F9F4F0895E89409C097FB65
:100790003EF490958095709561957F4F8F4F9F4F58
:1007A0009923A9F0F92F96E9BB279395F69587959C
:1007B00077956795B795F111F8CFFAF4BB0F11F45F
:1007C00060FF1BC06F5F7F4F8F4F9F4F16C0882306
:1007D00011F096E911C0772321F09EE8872F762F3C
:1007E00005C0662371F096E8862F70E060E02AF07D
:1007F0009A95660F771F881FDAF7880F9695879569
:1008000097F9089597F99F6780E870E060E0089590
:100810009FEF80EC089500240A9416161706180618
:100820000906089500240A941216130614060506F4
:100830000895092E0394000C11F4882352F0BB0F85
:1008400040F4BF2B11F460FF04C06F5F7F4F8F4FE8
:100850009F4F089557FD9058440F551F59F05F3F23
:1008600071F04795880F97FB991F61F09F3F79F0D2
:1008700087950895121613061406551FF2CF469554
:10088000F1DF08C0161617061806991FF1CF8695D6
:100890007105610508940895E894BB2766277727BA
:1008A000CB0197F908950BD0C4CFB5DF28F0BADF9C
:1008B00018F0952309F0A6CFABCF1124EECFCADFF5
:1008C000A0F3959FD1F3950F50E0551F629FF00163
:1008D000729FBB27F00DB11D639FAA27F00DB11DBC
:1008E000AA1F649F6627B00DA11D661F829F222745
:1008F000B00DA11D621F739FB00DA11D621F839FCC
:10090000A00D611D221F749F3327A00D611D231FA1
:10091000849F600D211D822F762F6A2F11249F57EF
:1009200050408AF0E1F088234AF0EE0FFF1FBB1F12
:10093000661F771F881F91505040A9F79E3F5105B1
:1009400070F060CFAACF5F3FECF3983EDCF3869562
:1009500077956795B795F795E7959F5FC1F7FE2B5C
:10096000880F911D9695879597F90895F894FFCF74
:100970002566002064656D6F200A00206669727329
:1009800074207061747465726E200A002073656350
:100990006F6E64207061747465726E200A0020743A
:1009A00068697264207061747465726E200A0066F2
:1009B0006F75727468207061617465726D200A00D1
:1009C0002F6E004449434F204C4947485453200A56
:1009D00000312E20317374205061747465726E2062
:1009E0000A00322E20326E64205061747465726E7B
:1009F000200A00332E2033726420506174746572B3
:100A00006E200A00342E203474682050617474659E
:060A1000726E200A0000D6
:00000001FF
