S0120000536572766F4D673930732E7372656373
S113000071C000008EC000008CC000008AC00000D7
S113001088C0000086C0000084C0000082C00000C8
S113002080C000007EC000007CC000007AC00000D8
S113003078C0000076C0000074C0000072C00000E8
S113004070C000006EC000006CC000006AC00000F8
S113005068C0000066C0000064C0000062C0000008
S113006060C000005EC000005CC000005AC0000018
S113007058C0000056C0000054C0000052C0000028
S113008050C000004EC000004CC000004AC0000038
S113009048C0000046C0000044C0000042C0000048
S11300A040C000003EC000003CC000003AC0000058
S11300B038C0000036C0000034C0000032C0000068
S11300C030C000002EC000002CC000002AC0000078
S11300D028C0000026C0000024C0000022C0000088
S11300E020C0000011241FBECFEFD1E2DEBFCDBF80
S11300F000E00CBF12E0A0E0B2E0ECEDF6E000E0BE
S11301000BBF02C007900D92AE31B107D9F722E0C0
S1130110AEE1B2E001C01D92AE31B207E1F7A0D06A
S1130120DBC26ECF87E690E09093C5008093C40055
S113013088E98093C1000895E0ECF0E0908195FF98
S1130140FDCF8093C6000895CF93DF93EC0188819F
S1130150882331F0219690E0EFDF89918111FBCF64
S1130160DF91CF9108958F929F92AF92BF92EF92B9
S1130170FF920F931F93CF93DF9300D01F921F9290
S1130180CDB7DEB78E010F5F1F4F7E0126E0E20E72
S1130190F11C0F2EFAE08F2E912CA12CB12CF02DF6
S11301A004C08D81803381F01AC0A501940172D2FC
S11301B0605DF80161938F01622F732F842F952F57
S11301C0EE15FF0591F7EDCF8C818033B9F48B8167
S11301D08033B1F48A818033A9F410E001C014E0C3
S11301E0E1E0F0E0EC0FFD1FE10FF11D17FDFA95C2
S11301F0808190E0A1DF11509AF706C013E0F0CFA0
S113020012E0EECF11E0ECCF0F900F900F900F9013
S11302100F90DF91CF911F910F91FF90EF90BF90BE
S1130220AF909F908F900895BC0180E090E041D101
S11302302FE832EC41EB51E4CAD120E030E04AE748
S113024054E4A7D00AD1ECEAF0E0718360836081C2
S1130250718180E090E087DF8CE192E075CF0895B2
S1130260E0EAF0E0808182608083A1EAB0E08C91D2
S113027088618C938C9182608C9380E49CE9909348
S1130280A7008093A600808188608083E1E0F1E08C
S113029080818062808346DF80E092E055DF80E0E9
S11302A090E0C2DF2FEF81EE94E021508040904037
S11302B0E1F700C0000080E090E0B6DF2FEF83EDAF
S11302C090E3215080409040E1F700C000008DE2AF
S11302D090E0AADF2FEF83ED90E32150804090401F
S11302E0E1F700C000008AE590E09EDF2FEF83ED88
S11302F090E3215080409040E1F700C0000087E87F
S113030090E092DF2FEF83ED90E321508040904006
S1130310E1F700C0000084EB90E086DF2FEF83ED6F
S113032090E3215080409040E1F700C0000087E84E
S113033090E07ADF2FEF83ED90E3215080409040EE
S1130340E1F700C000008AE590E06EDF2FEF83ED57
S113035090E3215080409040E1F700C000008DE21E
S113036090E062DF2FEF83ED90E3215080409040D6
S1130370E1F700C0000080E090E056DF2FEF83ED4E
S113038090E3215080409040E1F700C0000093CFFB
S11303905058BB27AA270ED0E0C0D1D030F0D6D019
S11303A020F031F49F3F11F41EF4C6C00EF4E09522
S11303B0E7FBBCC0E92FE2D080F3BA1762077307EA
S11303C08407950718F071F49EF5FAC00EF4E095D1
S11303D00B2EBA2FA02D0B01B90190010C01CA01FB
S11303E0A0011124FF27591B99F0593F50F4503EA6
S11303F068F11A16F040A22F232F342F4427585F98
S1130400F3CF469537952795A795F0405395C9F7AF
S11304107EF41F16BA0B620B730B840BBAF0915067
S1130420A1F0FF0FBB1F661F771F881FC2F70EC006
S1130430BA0F621F731F841F48F4879577956795D9
S1130440B795F7959E3F08F0B3CF9395880F08F0C2
S11304509927EE0F97958795089598D088F09F5720
S113046090F0B92F9927B751A0F0D1F0660F771FFC
S1130470881F991F1AF0BA95C9F712C0B13081F0DC
S11304809FD0B1E008959CC0672F782F8827B85F6C
S113049039F0B93FCCF3869577956795B395D9F73D
S11304A03EF490958095709561957F4F8F4F9F4F47
S11304B00895E89409C097FB3EF490958095709553
S11304C061957F4F8F4F9F4F9923A9F0F92F96E99C
S11304D0BB279395F695879577956795B795F11111
S11304E0F8CFFAF4BB0F11F460FF1BC06F5F7F4FAE
S11304F08F4F9F4F16C0882311F096E911C07723C0
S113050021F09EE8872F762F05C0662371F096E8C8
S1130510862F70E060E02AF09A95660F771F881F97
S1130520DAF7880F9695879597F9089597F99F6755
S113053080E870E060E008959FEF80EC0895002467
S11305400A941616170618060906089500240A9434
S113055012161306140605060895092E0394000CBA
S113056011F4882352F0BB0F40F4BF2B11F460FF49
S113057004C06F5F7F4F8F4F9F4F089557FD905872
S1130580440F551F59F05F3F71F04795880F97FB53
S1130590991F61F09F3F79F087950895121613060D
S11305A01406551FF2CF4695F1DF08C0161617063C
S11305B01806991FF1CF8695710561050894089571
S11305C0E894BB2766277727CB0197F908950BD0CA
S11305D0C4CFB5DF28F0BADF18F0952309F0A6CF11
S11305E0ABCF1124EECFCADFA0F3959FD1F3950FC3
S11305F050E0551F629FF001729FBB27F00DB11DA3
S1130600639FAA27F00DB11DAA1F649F6627B00D32
S1130610A11D661F829F2227B00DA11D621F739F1B
S1130620B00DA11D621F839FA00D611D221F749F29
S11306303327A00D611D231F849F600D211D822F70
S1130640762F6A2F11249F5750408AF0E1F08823B7
S11306504AF0EE0FFF1FBB1F661F771F881F9150C4
S11306605040A9F79E3F510570F060CFAACF5F3F7D
S1130670ECF3983EDCF3869577956795B795F795F7
S1130680E7959F5FC1F7FE2B880F911D969587957F
S113069097F90895A1E21A2EAA1BBB1BFD010DC0F8
S11306A0AA1FBB1FEE1FFF1FA217B307E407F5071E
S11306B020F0A21BB30BE40BF50B661F771F881FFA
S11306C0991F1A9469F760957095809590959B0190
S10F06D0AC01BD01CF010895F894FFCFE8
S11306DC0D0A57656C636F6D6520746F20746865C3
S11106EC20536572766F2044656D6F0D0A0011
S9030000FC
