S0190000455350383236365F7745425345525645522E7372656319
S113000094C00000B1C00000AFC00000ADC000004B
S1130010ABC00000A9C00000A7C00000A5C000003C
S1130020A3C00000A1C000009FC000009DC000004C
S11300309BC0000099C0000097C0000095C000005C
S113004093C0000034C100008FC000008DC00000C8
S11300508BC0000089C0000087C0000085C000007C
S113006083C000006FC100007FC000007DC000009D
S11300707BC0000079C0000077C0000075C000009C
S113008073C0000071C000006FC000006DC00000AC
S1130090A3C1000069C0000067C0000065C0000083
S11300A063C0000061C000005FC000005DC00000CC
S11300B05BC0000059C0000057C0000055C00000DC
S11300C053C0000051C000004FC000004DC00000EC
S11300D04BC0000049C0000047C0000045C00000FC
S11300E043C000004920414D205052454441544FE3
S11300F0522C2020554E5345454E20434F4D4241EE
S113010054414E542E2043524541544544204259B3
S11301102054484520554E49544544205354415495
S11301204553204445504152540011241FBECFEF83
S1130130D1E2DEBFCDBF00E00CBF1CE0A0E0B2E026
S1130140E2E4FFE000E00BBF02C007900D92A83983
S1130150B107D9F72EE0A8E9BCE001C01D92A93C83
S1130160B207E1F70BD3EBC64BCF87E690E0909351
S1130170C5008093C40088E98093C1000895E0EC31
S1130180F0E0908195FFFDCF8093C6000895CF9352
S1130190DF93EC018881882331F0219690E0EFDF32
S11301A089918111FBCFDF91CF9108958F929F9216
S11301B0AF92BF92EF92FF920F931F93CF93DF936F
S11301C000D01F921F92CDB7DEB78E010F5F1F4F75
S11301D07E0126E0E20EF11C0F2EFAE08F2E912C08
S11301E0A12CB12CF02D04C08D81803381F01AC074
S11301F0A501940173D3605DF80161938F01622FAF
S1130200732F842F952FEE15FF0591F7EDCF8C8179
S11302108033B9F48B818033B1F48A818033A9F4BB
S113022010E001C014E0E1E0F0E0EC0FFD1FE10F8D
S1130230F11D17FDFA95808190E0A1DF11509AF726
S113024006C013E0F0CF12E0EECF11E0ECCF0F9038
S11302500F900F900F900F90DF91CF911F910F91FE
S1130260FF90EF90BF90AF909F908F90089588E09B
S113027090E09093CD008093CC0088E98093C900EE
S11302800895E8ECF0E0908195FFFDCF8093CE00D7
S11302900895CF93DF93EC018881882329F0219678
S11302A0F0DF89918111FCCFDF91CF9108951F92E6
S11302B00F920FB60F9211248F939F93AF93BF9316
S11302C08091C50E9091C60EA091C70EB091C80E34
S11302D00196A11DB11D8093C50E9093C60EA093E7
S11302E0C70EB093C80EBF91AF919F918F910F909D
S11302F00FBE0F901F90189520E43FE140E050E0BE
S1130300EDD28AE080938100BB27A52F942F832F01
S11303108093890020938800EFE6F0E0808182607A
S11303208083089560E074E284EF90E0E5DFF89460
S11303306091C50E7091C60E8091C70E9091C80E43
S1130340789408951F920F920FB60F9211240BB652
S11303500F922F933F934F935F936F937F938F935A
S11303609F93AF93BF93CF93EF93FF93C091C60036
S11303708C2F90E004DF8091A30EE82FF0E0EC5581
S1130380F14FC0838F5F813218F48093A30E02C0B3
S11303901092A30E8091A20E8F5F813218F4809385
S11303A0A20E06C080E28093A20E81E08093A10E8B
S11303B0FF91EF91CF91BF91AF919F918F917F91D9
S11303C06F915F914F913F912F910F900BBE0F90C2
S11303D00FBE0F901F9018951F920F920FB60F9299
S11303E011240BB60F928F939F93EF93FF939091E9
S11303F0CE0090939D0D8091A10DE82FF0E0EE5575
S1130400F24F90838F5F8093A10D80919F0D8F5F3A
S113041080939F0D80939E0DFF91EF919F918F91FB
S11304200F900BBE0F900FBE0F901F9018959091D8
S1130430A00DE92FF0E0EE55F24F80819F5F90937D
S1130440A00D90919F0D992319F0915090939F0DB9
S11304500895CF938CE092E09ADE60919E0D70E057
S113046080E090E0A3DE8FE797E091DE8FEFEEE986
S1130470FCE0DF011D928A95E9F780919F0D8823A6
S113048061F0C0E0D4DFEC2FF0E0E256F34F80835C
S1130490CF5F80919F0D8111F5CF8EE99CE077DECF
S11304A0CF910895EEE9FCE001900020E9F731973F
S11304B0EE59FC40EF3FF1052CF4BC018EE99CE0C1
S11304C049D29C01C90108958F929F92AF92BF9225
S11304D0CF92DF92EF92FF92CF936C0123DF4B0117
S11304E05C018FEFEEE9FCE0DF011D928A95E9F7EC
S11304F0C0E0E12CF12C16DFDC01CB01881999094D
S1130500AA09BB098C159D05AE05BF0560F4809151
S11305109F0D882381F38BDFEC2FF0E0E256F34F3D
S11305208083CF5FE8CFC11103C082E090E002C0B6
S113053080E090E0CF91FF90EF90DF90CF90BF905C
S1130540AF909F908F9008958F929F92AF92BF9299
S1130550CF92DF92EF92FF921F93CF93DF93EC0140
S11305606B01E0DE4B015C018FEFEEE9FCE0DF01A3
S11305701D928A95E9F710E0E12CF12CD3DEDC0121
S1130580CB0188199909AA09BB098C159D05AE05EB
S1130590BF0580F480919F0D882381F348DFE12F0C
S11305A0F0E0E256F34F80831F5FCE017BDF892B9F
S11305B029F305C0111106C082E090E005C081E076
S11305C090E002C080E090E0DF91CF911F91FF9016
S11305D0EF90DF90CF90BF90AF909F908F90089551
S11305E0CF93DF93EC018FEFEEE9FCE0DF011D9286
S11305F08A95E9F78EEE94E0CADD80E295E0C7DDE6
S1130600CE01C5DD8FE797E0C2DDC0E080919A0C92
S113061090919B0CA0919C0CB0919D0C892B8A2BE2
S11306208B2B09F04CC003DFEC2FF0E0E256F34FC4
S11306308083CF5F6CE475E08EE99CE08BD1892BDD
S113064029F387E595E0A3DD67E775E08EE99CE093
S113065081D1FC01858190E09093990C8093980C52
S11306608CE795E094DD8091980C9091990C87DD4E
S113067081E090E0A0E0B0E080939A0C90939B0C12
S1130680A0939C0CB0939D0C8FE797E080DD609164
S11306909A0C70919B0C80919C0C90919D0C86DD22
S11306A08FE797E074DD8FEFE2EAFDE0DF011D9252
S11306B08A95E9F761E070E080E090E003C060E0D3
S11306C070E0CB01DF91CF9108950F931F93CF93E7
S11306D0DF93CDB7DEB72F970FB6F894DEBF0FBE0A
S11306E0CDBF8DED95E053DD1F9285E48F9380910E
S11306F0980C9091990CC0979F938F938BE196E0FF
S11307009F938F938E010F5F1F4F1F930F933CD1C5
S11307108EE296E03CDD8091980C9091990C2FDD4F
S11307208FE797E034DDC801B4DD60ED77E08EE358
S113073096E00ADF8EE99CE02ADD0FB6F894DEBF6E
S11307400FBECDBF2F960FB6F894DEBF0FBECDBF40
S1130750DF91CF911F910F91089580E496E017DD0A
S113076084EE90E096DD60ED77E081E796E0ECDEE4
S1130770019719F48EE99CE00ACD0895CF93DF9395
S1130780CDB7DEB7A8970FB6F894DEBF0FBECDBFC6
S113079060E074E284EF90E0AFDDE7DC68DD8AEFCF
S11307A096E0F5DC8FE797E0F2DC7894E12CF12C0D
S11307B00F2EF4E17F2EF02D8E010F5F1F4F6E017F
S11307C025E1C20ED11C1E141F040CF45CC08AEC7B
S11307D096E05FDD3EDE88ED96E05BDD3ADE86EE98
S11307E096E057DD88EE93E06FDE8EE99CE0CFDC87
S11307F082ED92E04EDD2DDE88E597E04ADD80E86B
S11308009EE362DE81E094E044DD88EE93E05CDE0A
S1130810F801272D11922A95E9F7F601272D119257
S11308202A95E9F76CE174E08EE99CE093D00E968A
S11308305C0162E270E074D0AC014A195B09B50155
S1130840C80179D089E294E0A2DCC801A0DC8FE77A
S113085097E09DDCC5019BDC64E474E08EE99CE0D8
S113086079D00F965C0162E270E05AD0AC014A196B
S11308705B09B501C6015FD081E897E00ADDE9DDD7
S11308808FEFE81AF80AC801ABDE4B015C018FE771
S113089097E07DDCC501B40189DC8FE797E077DC64
S11308A014DF9FEFE3EDF0E39150E040F040E1F717
S11308B000C0000052DF2FEF83ED90E32150804011
S11308C09040E1F700C00000EFEFF3E224EFE150C5
S11308D0F0402040E1F700C0000075CFA1E21A2EDD
S11308E0AA1BBB1BFD010DC0AA1FBB1FEE1FFF1FD0
S11308F0A217B307E407F50720F0A21BB30BE40B20
S1130900F50B661F771F881F991F1A9469F7609566
S11309107095809590959B01AC01BD01CF01089520
S1130920FC018191861721F08823D9F7992708952E
S11309303197CF010895FB01DC014150504048F04C
S113094001900D920020C9F701C01D924150504002
S1130950E0F70895FB0151915523A9F0BF01DC0193
S11309604D9145174111E1F759F4CD010190002053
S113097049F04D9140154111C9F3FB014111EFCFED
S113098081E090E0019708950F931F93CF93DF9335
S1130990CDB7DEB72E970FB6F894DEBF0FBECDBF2E
S11309A00E891F8986E08C831A8309838FEF9FE762
S11309B09E838D83AE01465E5F4F688D798DCE0137
S11309C0019610D0EF81F885E00FF11F10822E966A
S11309D00FB6F894DEBF0FBECDBFDF91CF911F914C
S11309E00F9108952F923F924F925F926F927F9250
S11309F08F929F92AF92BF92CF92DF92EF92FF922B
S1130A000F931F93CF93DF93CDB7DEB72B970FB61A
S1130A10F894DEBF0FBECDBF6C017B018A01FC01DF
S1130A2017821682838181FFBFC1CE0101963C01EA
S1130A30F6019381F70193FD859193FF81917F01E5
S1130A40882309F4ADC1853239F493FD859193FF70
S1130A5081917F01853221F4B60190E0D6D1E8CFAF
S1130A60912C212C312CFFE1F315D8F08B3279F045
S1130A7038F4803279F08332A1F4232D20611DC033
S1130A808D3261F0803369F4232D216016C0832DEB
S1130A908260382EE32DE4603E2E2AC0F32DF860E8
S1130AA01DC037FC2DC020ED280F2A3040F08E32B7
S1130AB0B9F436FC75C1232D2064322E19C036FEDC
S1130AC006C08AE0989E200D1124922E11C0EAE0FF
S1130AD02E9E200D1124222EF32DF0623F2E08C0ED
S1130AE08C3621F4832D8068382E02C0883641F478
S1130AF0F70193FD859193FF81917F018111B3CF1C
S1130B00982F9F7D9554933028F40C5F1F4F9FE3DB
S1130B1099830DC0833631F0833771F0833509F042
S1130B2055C020C0F801808189830E5F1F4F88243F
S1130B308394912C530112C02801F2E04F0E511CF2
S1130B40F801A080B18036FE03C0692D70E002C0B8
S1130B506FEF7FEFC5014ED14C018201F32DFF777A
S1130B603F2E15C0280122E0420E511CF801A0803E
S1130B70B18036FE03C0692D70E002C06FEF7FEFD5
S1130B80C5012DD14C01F32DF0683F2E820133FCB9
S1130B9019C0822D90E088169906A0F4B60180E26F
S1130BA090E033D12A94F5CFF50137FC859137FED7
S1130BB081915F01B60190E028D121102A9421E0AF
S1130BC0821A91088114910479F7E1C0843611F0F6
S1130BD0893639F5F80137FE07C060817181828159
S1130BE093810C5F1F4F08C060817181072E000C38
S1130BF0880B990B0E5F1F4FF32DFF763F2E97FF47
S1130C0009C090958095709561957F4F8F4F9F4F48
S1130C10F0683F2E2AE030E0A30133D1882E8618F5
S1130C2044C0853731F4232D2F7EB22E2AE030E0E4
S1130C3025C0932D997FB92E8F36C1F018F48835CD
S1130C4079F0AEC0803719F0883721F0A9C0E92FB8
S1130C50E061BE2EB4FE0DC0FB2DF460BF2E09C0B2
S1130C6034FE0AC0292F2660B22E06C028E030E0E8
S1130C7005C020E130E002C020E132E0F801B7FE17
S1130C8007C060817181828193810C5F1F4F06C010
S1130C906081718180E090E00E5F1F4FA301F1D06D
S1130CA0882E8618FB2DFF773F2E36FE0DC0232D90
S1130CB02E7FA22E891458F434FE0BC032FC09C0D6
S1130CC0832D8E7EA82E05C0B82CA32C03C0B82C6F
S1130CD001C0B92CA4FE0FC0FE01E80DF11D8081F6
S1130CE0803321F49A2D997EA92E09C0A2FE06C054
S1130CF0B394B39404C08A2D867809F0B394A3FC0A
S1130D0010C0A0FE06C0B21480F4280C922C9B18CC
S1130D100DC0B21458F4B60180E290E076D0B394DA
S1130D20F8CFB21418F42B1802C0982C212CA4FE6E
S1130D300FC0B60180E390E068D0A2FE16C0A1FC0B
S1130D4003C088E790E002C088E590E0B6010CC0DB
S1130D508A2D867851F0A1FE02C08BE201C080E2A8
S1130D60A7FC8DE2B60190E050D0891430F4B601AE
S1130D7080E390E04AD09A94F8CF8A94F301E80D86
S1130D80F11D8081B60190E040D08110F6CF222081
S1130D9009F44ECEB60180E290E037D02A94F7CF22
S1130DA0F6018681978102C08FEF9FEF2B960FB6D5
S1130DB0F894DEBF0FBECDBFDF91CF911F910F918D
S1130DC0FF90EF90DF90CF90BF90AF909F908F9067
S1130DD07F906F905F904F903F902F900895FC010B
S1130DE00590615070400110D8F7809590958E0F52
S1130DF09F1F0895FC016150704001900110D8F7C5
S1130E00809590958E0F9F1F08950F931F93CF93F6
S1130E10DF93FB01238121FD03C08FEF9FEF2CC0E3
S1130E2022FF16C04681578124813581421753071A
S1130E3044F4A081B1819D012F5F3F4F3183208312
S1130E408C93268137812F5F3F4F3783268314C0CD
S1130E508B01EC01FB010084F185E02D1995892BB0
S1130E60E1F6D80116968D919C91179701961796E5
S1130E709C938E931697CE01DF91CF911F910F9182
S1130E800895FA01AA27283051F1203181F1E8941C
S1130E906F936E7F6E5F7F4F8F4F9F4FAF4FB1E069
S1130EA03ED0B4E03CD0670F781F891F9A1FA11D64
S1130EB0680F791F8A1F911DA11D6A0F711D811D65
S1130EC0911DA11D20D009F468943F912AE0269F2A
S1130ED011243019305D3193DEF6CF010895462F89
S1130EE04770405D4193B3E00FD0C9F7F6CF462F6A
S1130EF04F70405D4A3318F0495D31FD40524193D3
S1130F0002D0A9F7EACFB4E0A6959795879577958F
S1130F106795BA95C9F700976105710508959B0116
S1130F20AC010A2E06945795479537952795BA959F
S1130F30C9F7620F731F841F951FA01D0895F894AD
S1050F40FFCFDD
S1130F422566006572726F7220320A00204E756D3A
S1130F52626572206F662063686172616374657290
S1130F6273207265636569766564203A2000415492
S1130F722B43574D4F44453F0D0A00536F6674414E
S1130F8250206D6F64652073656C65637465640AD3
S1130F9200536F667441502B53746174696F6E20F1
S1130FA26D6F64652073656C65637465640A0041E2
S1130FB2542B4349504D55583F0D0A0053696E67EF
S1130FC26C6520636F6E6E656374696F6E202D208D
S1130FD2636F6E6669677572656420617320636C02
S1130FE269656E740A006D756C7469706C65206352
S1130FF26F6E6E656374696F6E202D20636F6E660B
S113100269677572656420617320736572766572AF
S11310120A0041542B43574A41503F0D0A004E6F78
S1131022204150004E6F20415020697320636F6E3F
S11310326E65637465640A002B43574A41503A0053
S1131042436F6E6E656374656420746F20576966BE
S1131052693A0041542B43574A41503D2225732299
S11310622C222573220D0A005769466920697320D0
S113107220636F6E6E656374656420746F203A003A
S11310824572726F7220696E20636F6E6E6563744F
S1131092696E6720746F203A00436F6E6E656374E5
S11310A2696F6E2074696D656F7574200A005772DA
S11310B26F6E672070617373776F7264200A0063C6
S11310C2616E6E6F742066696E6420746865207444
S11310D261726765742041500A00636F6E6E6563C6
S11310E274696F6E206661696C6564200A004154FC
S11310F22B43575141500D0A005749464920444950
S113110253434F4E4E454354005749464920697351
S11311122020646973636F6E6E6563746564202056
S11311220A005749464920697320616C72656164FB
S11311327920646973636F6E6E6563746564200AF3
S11311420041542B43494653520D0A004950206131
S1131152646472657373206973200A002B434946E1
S113116253523A53544149500049502061646472C5
S1131172657373206F662053746174696F6E20699E
S113118273203A002B43494653523A5354414D413A
S113119243000A204D6163206164647265737320A5
S11311A26F662053746174696F6E206973203A000C
S11311B22B43494653523A41504950004950206109
S11311C2646472657373206F6620536F6674415052
S11311D2206973203A002B43494653523A41504DF9
S11311E24143000A204D6163206164647265737334
S11311F2206F6620536F66744150206973203A0051
S113120241542B43574C41500D0A005769466920FB
S11312126E6574776F726B73206E65617220617292
S1131222653A200A0041542B5253540D0A002A2ACB
S11312322A2A2A2A2A2A2A2A2A57616974696E675B
S113124220466F7220436C69656E7420746F20634C
S11312526F6E6E6563742A2A2A2A2A2A2A2A0A00A7
S113126242726F77736520495020616464726573BA
S113127273206F6E20746865206C6F63616C2057F5
S113128265622D42726F777365723A00436F6E6EB8
S1131292656374696F6E002A2A2A2A2A2A2A436CF1
S11312A269656E7420436F6E6E65637465642A2A81
S11312B22A2A2A2A2A0A002B495044004368616ECA
S11312C26E656C204944207769746820436C6965B3
S11312D26E742069733A004920414D2050524544AE
S11312E241544F522C2020554E5345454E20434FD6
S11312F24D424154414E542E20435245415445449B
S11313022042592054484520554E495445442053BF
S1131312544154455320444550415254000A2A2A08
S11313222A2A53656E64696E672064657461696C08
S113133273206F66206461746120746F206265207B
S113134273656E64202841542B43495053454E44DF
S1131352292A2A2A2A2A2A2A2A0A0041542B4349B8
S11313625053454E443D25692C25750D0A004368AA
S1131372616E6E656C206964206973203A003E00D8
S11313820A2A2A2A2A2A2A2A2A2A2A2A2A53656E2F
S113139264696E67204461746120746F20436C69D0
S11313A2656E742A2A2A2A2A2A2A2A2A2A2A2A0AEE
S11313B20053454E44204F4B000A2A2A2A2A2A2A3D
S11313C22A2A2A2A2A2A2A2A2A2A436C6F73696E0B
S11313D267207468652073657373696F6E2077691B
S11313E2746820436C69656E742A2A2A2A2A2A2A76
S11313F22A2A2A2A2A2A2A0A0041542B43495043D8
S11314024C4F53453D25750D0A0041542B43574D0E
S11314124F44453D310D0A0041542B4349504D552B
S1131422583D310D0A0041542B43495053455256FD
S113143245523D312C38300D0A002A2A2A2A2A2AFA
S11314422A2A2A2A2A2A2A2A2A2A2A2A455350387E
S113145232363620415420436F6D6D616E647320C1
S11314626669726D776172653A2057656273657257
S113147276657220287573696E6720656D6265648E
S11314826465642043292A2A2A2A2A2A2A2A2A2AF9
S11314922A2A2A2A2A2A2A0041542B43574A4150EB
S11314A23D224A696F466962657220322E3467684A
S11314B27A222C224D616E736935343831220D0A39
S11314C20041542B43495053544F3F0D0A003C21D1
S11314D2444F43545950452048544D4C3E3C687443
S11314E26D6C3E3C686561643E3C6D657461206E62
S11314F2616D653D2276696577706F72742220632F
S11315026F6E74656E743D2277696474683D6465B8
S1131512766963652D77696474682C20696E6974D1
S113152269616C2D7363616C653D31223E3C73636A
S113153272697074207372633D2268747470733AB2
S11315422F2F636F64652E686967686368617274BC
S1131552732E636F6D2F6869676863686172747351
S11315622E6A73223E3C2F7363726970743E3C731D
S113157274796C653E626F6479207B6D696E2D7738
S1131582696474683A2033313070783B6D61782D28
S113159277696474683A2038303070783B0968653A
S11315A2696768743A2034303070783B6D617267D1
S11315B2696E3A2030206175746F3B7D6832207BFE
S11315C209666F6E742D66616D696C793A20417299
S11315D269616C3B666F6E742D73697A653A203269
S11315E22E3572656D3B746578742D616C69676E16
S11315F23A2063656E7465723B7D3C2F7374796C1B
S1131602653E3C2F686561643E3C626F64793E3C92
S113161268323E4553503832363620446973746119
S11316226E636520506C6F743C2F68323E3C646973
S1131632762069643D2263686172742D64697374EF
S1131642616E63652220636C6173733D22636F6E06
S11316527461696E6572223E3C2F6469763E3C2F4A
S1131662626F64793E3C7363726970743E76617230
S113167220636861727454203D206E657720486946
S113168267686368617274732E4368617274287B3D
S113169263686172743A7B2072656E646572546F1A
S11316A2203A202763686172742D64697374616ED1
S11316B2636527207D2C7469746C653A207B2074E1
S11316C26578743A202748432D53523034204469B4
S11316D27374616E636527207D2C7365726965730B
S11316E23A205B7B73686F77496E4C6567656E64FD
S11316F23A2066616C73652C646174613A205B5DA7
S11317027D5D2C706C6F744F7074696F6E733A20C8
S11317127B6C696E653A207B20616E696D617469C8
S11317226F6E3A2066616C73652C646174614C61FE
S113173262656C733A207B20656E61626C65643A03
S11317422074727565207D7D2C7365726965733AA8
S1131752207B20636F6C6F723A2027233035396502
S1131762386127207D7D2C78417869733A207B206B
S1131772747970653A20276461746574696D6527AC
S11317822C6461746554696D654C6162656C466F65
S1131792726D6174733A207B207365636F6E643A71
S11317A2202725483A254D3A255327207D7D2C793B
S11317B2417869733A207B7469746C653A207B20A2
S11317C2746578743A202744697374616E63652082
S11317D228434D2927207D7D2C63726564697473C7
S11317E23A207B20656E61626C65643A2066616CA6
S11317F27365207D7D293B736574496E74657276C9
S1131802616C2866756E6374696F6E2028202920C6
S11318127B766172207868747470203D6E657720DF
S1131822584D4C48747470526571756573742829E7
S11318323B78687474702E6F6E7265616479737428
S11318426174656368616E6765203D2066756E63C9
S113185274696F6E2829207B69662028746869730D
S11318622E72656164795374617465203D3D203440
S113187220262620746869732E737461747573202C
S11318823D3D2032303029207B7661722078203D24
S113189220286E657720446174652829292E67659E
S11318A27454696D6528292C79203D207061727306
S11318B265466C6F617428746869732E72657370FF
S11318C26F6E736554657874293B2F2F636F6E7343
S11318D26F6C652E6C6F6728746869732E726573FA
S11318E2706F6E736554657874293B696628636802
S11318F2617274542E7365726965735B305D2E6414
S11319026174612E6C656E677468203E20343029E0
S1131912207B6368617274542E7365726965735BAC
S1131922305D2E616464506F696E74285B782C207C
S1131932795D2C20747275652C20747275652C2067
S113194274727565293B7D20656C7365207B6368C1
S1131952617274542E7365726965735B305D2E61B6
S11319626464506F696E74285B782C20795D2C2036
S1131972747275652C2066616C73652C20747275A3
S113198265293B7D7D7D3B78687474702E6F70652C
S11319926E2822474554222C20222F6469737461D5
S11319A26E6365222C2074727565293B78687474A1
S11319B2702E73656E6428293B7D2C2033303030C1
S11319C22029203B3C2F7363726970743E3C2F685C
S10B19D2746D6C3E0D0A000067
S9030000FC
