:1000000071C000008FC000008DC000008BC00000D8
:1000100089C0000087C0000085C0000083C00000C8
:1000200081C000007FC000007DC000007BC00000D8
:1000300079C0000077C0000075C000001BC300003D
:1000400071C000006FC000006DC000006BC00000F8
:1000500069C0000067C0000065C0000063C0000008
:1000600061C000005FC000005DC000005BC0000018
:1000700059C0000057C0000055C0000053C0000028
:1000800051C000004FC000004DC000004BC0000038
:1000900049C0000047C0000045C0000043C0000048
:1000A00041C000003FC000003DC000003BC0000058
:1000B00039C0000037C0000035C0000033C0000068
:1000C00031C000002FC000002DC000002BC0000078
:1000D00029C0000027C0000025C0000023C0000088
:1000E00021C0000011241FBECFEFD1E2DEBFCDBF83
:1000F00000E00CBF12E0A0E0B2E0E6ECF1E100E0CD
:100100000BBF02C007900D92A435B107D9F722E0CA
:10011000A4E5B2E001C01D92A936B207E1F7B4D35D
:100120000C94E1086DCF88E48093B8001092B90078
:10013000089584EA8093BC00ECEBF0E08081882392
:10014000ECF7E9EBF0E08081887F8830E1F70895F3
:100150008093BB0084E88093BC00ECEBF0E08081EE
:100160008823ECF7E9EBF0E08081887F8831E1F7C4
:1001700008958093BB0084E88093BC00ECEBF0E032
:1001800080818823ECF7E9EBF0E08081887F88327A
:10019000E1F7089584E98093BC00ECEBF0E0808106
:1001A00084FDFDCF0895CF93C82FC3DF8EE7D0DF46
:1001B0008C2F8860DEDFEEDFCF910895CF93C09162
:1001C000000290916802C92BC82B8C2F8460EBDF52
:1001D0008C2F8B7FE8DF2FEF80E792E0215080406B
:1001E0009040E1F700C00000CF910895CF93C82F51
:1001F0001092000210926802807FE0DF8C2F8295BF
:10020000807FDCDFCF91089581E0F0DF2FEF89EF71
:1002100090E0215080409040E1F700C00000089538
:10022000CF93C82F81E080930002109268028C2F38
:10023000807FC4DF8C2F8295807FC0DFCF910895AF
:100240001F93CF93DF93EC0168EE73E096D4162FE3
:10025000662319F080E3860FE3DF28E13CEF129F6D
:10026000C001139F900D11248C0F9D1F019764E610
:1002700070E083D4662319F080E3860FD1DFCE01CE
:1002800064E670E07AD46AE070E077D4662319F00F
:1002900080E3860FC5DFCE016AE070E06ED4805D3A
:1002A000BFDFDF91CF911F910895CF93DF93EC01D2
:1002B0008881882341F02196B3DF80EF8A95F1F79A
:1002C00089918111F9CFDF91CF9108952CDF8FE8CB
:1002D00091E00197F1F700C0000080E064DF9FE744
:1002E00028E381E0915020408040E1F700C0000009
:1002F00088E27CDF8FE19EE40197F1F700C0000007
:1003000088E274DF8FE792E00197F1F700C0000008
:1003100088E26CDF88E26ADF90EF9A95F1F78CE073
:1003200065DF8FE99FE00197F1F700C0000084E0EE
:100330005DDF95ED9A95F1F70000089587E690E06E
:100340009093C5008093C40088E98093C10008950C
:10035000E0ECF0E0908195FFFDCF8093C60008951A
:100360008F929F92AF92BF92EF92FF920F931F9343
:10037000CF93DF9300D01F921F92CDB7DEB78E01CF
:100380000F5F1F4F7E0126E0E20EF11C0F2EFAE0F8
:100390008F2E912CA12CB12CF02D04C08D81803397
:1003A00081F01AC0A5019401FBD3605DF80161934F
:1003B0008F01622F732F842F952FEE15FF0591F774
:1003C000EDCF8C818033B9F48B818033B1F48A8195
:1003D0008033A9F410E001C014E0E1E0F0E0EC0F9C
:1003E000FD1FE10FF11D17FDFA95808190E0B0DF50
:1003F00011509AF706C013E0F0CF12E0EECF11E0F3
:10040000ECCF0F900F900F900F900F90DF91CF9146
:100410001F910F91FF90EF90BF90AF909F908F90A2
:10042000089585B5826085BD16BCE1E0F1E080816C
:1004300080618083E2E0F1E080818F7E80832FEF16
:1004400080EE90E0215080409040E1F700C0000035
:1004500080818061808316BC86B58135E8F3E1E058
:10046000F1E080818F7E808308958091000184FD7A
:100470000DC016BC86B58B3AE8F38091000184FF6D
:1004800008C016BC86B58B3AE8F3089581E090E089
:10049000089582E090E008950F931F93CF93DF9328
:1004A0001F92CDB7DEB71982A3E6B2E068E672E02C
:1004B000E0E0F1E041E050E091E027E030E016BC00
:1004C000808184FD0BC086B58837D0F366B570E0B7
:1004D00080E090E045DF8CE090E063C016BC808156
:1004E00084FF0FC086B58B3A38F081E090E059C0A8
:1004F00086B58B3A08F04DC086B58983808184FD2E
:10050000F7CF19810981892F183208F480E08823F8
:1005100091F0892F073408F080E0882361F08A0188
:10052000022E02C0000F111F0A94E2F700958C9171
:1005300008230C9318C009811981892F083708F402
:1005400080E0882349F1892F1B3A08F080E0882356
:1005500019F18C918A01022E02C0000F111F0A941A
:10056000E2F7082B0C932150310908F0A8CF11961F
:100570006A177B0709F0A1CFE3E6F2E09081818161
:10058000890F9281980F8381890F9481891307C005
:1005900008C081E090E005C082E090E002C083E006
:1005A00090E00F90DF91CF911F910F91089539DF67
:1005B0005CDF72CF0895CF92DF92EF92FF92CF93DC
:1005C000DF93C3E6D2E06B8170E080E090E0E6D19B
:1005D0002DEC3CEC4CEC5DE36DD26B017C016A814F
:1005E00070E080E090E0DAD19B01AC01C701B60178
:1005F0006FD1DF91CF91FF90EF90DF90CF90089572
:1006000025982D9A26982E9A0895E1EBF0E08081A6
:10061000826080831092B200E0E7F0E08081816028
:1006200080837894089580916202882319F0813044
:1006300059F014C01D991AC0EDE5F2E08081918156
:1006400001969183808312C01E990DC0EDE5F2E002
:100650008281938101969383828305C08F5F80930B
:100660006202823030F010926202089581E080933D
:10067000620208951F920F920FB60F9211240BB6CB
:100680000F922F933F934F935F936F937F938F932B
:100690009F93AF93BF93EF93FF9385B1805885B934
:1006A000C2DFFF91EF91BF91AF919F918F917F91A9
:1006B0006F915F914F913F912F910F900BBE0F90D3
:1006C0000FBE0F901F90189580915D0290915E0271
:1006D000459744F480915F0290916002459764F0E1
:1006E00081E001C080E08F5F80936102EDE5F2E080
:1006F0001182108213821282089580E877DD85EDE1
:100700008A95F1F7000081E192E0CFDD80EC6EDDAB
:1007100085ED8A95F1F7000080915A0290E090CD26
:10072000089545DF48DF262F372F462F572F682F94
:10073000792F40935502509356026093570270935D
:1007400058029F938F933F932F9385E092E09F935E
:100750008F9389E592E09F938F9358D280E846DD8E
:1007600085ED8A95F1F7000082E392E09EDD80EC52
:100770003DDD95ED9A95F1F7000089E592E095DD74
:1007800085EC34DD85ED8A95F1F700008BE392E08E
:100790008CDD8DB79EB708960FB6F8949EBF0FBE3E
:1007A0008DBF089591DF80915C028130A1F018F037
:1007B000823041F166C0B5DF80916102813019F469
:1007C00080935C0221DD80916102823009F059C082
:1007D00010925C0256C091DF80916102813039F441
:1007E00080915B0280935A0210925C020DDD809131
:1007F0006102823009F045C080935C0281E0809301
:1008000054023FC02FEF83ED90E321508040904091
:10081000E1F700C0000080915402813091F480EC37
:10082000E5DC25ED2A95F1F7000080915B028F5FF2
:1008300080935B0290E004DD82E080935C02109282
:10084000540280916102813041F480915B02809377
:100850005A0281E080935C02D7DC80916102823091
:1008600081F480ECC3DC85ED8A95F1F7000080917E
:100870005B028F5F80935B0290E0E2DC82E080931A
:100880005C02109261020895EDE5F2E0118210829F
:1008900013821282BADE52DD19DDB6DC80E492E00A
:1008A00004DD80ECA3DC25ED2A95F1F700008BE454
:1008B00092E0FBDC8FEF93ED20E3815090402040ED
:1008C000E1F700C000009CDE9FDC6CDFFECF5058DB
:1008D000BB27AA270ED0B4C0A5D030F0AAD020F0F4
:1008E00031F49F3F11F41EF49AC00EF4E095E7FB3B
:1008F00090C0E92FB6D080F3BA1762077307840758
:10090000950718F071F49EF5CEC00EF4E0950B2E0D
:10091000BA2FA02D0B01B90190010C01CA01A00151
:100920001124FF27591B99F0593F50F4503E68F1AC
:100930001A16F040A22F232F342F4427585FF3CFED
:10094000469537952795A795F0405395C9F77EF4BE
:100950001F16BA0B620B730B840BBAF09150A1F007
:10096000FF0FBB1F661F771F881FC2F70EC0BA0F8D
:10097000621F731F841F48F4879577956795B79515
:10098000F7959E3F08F0B3CF9395880F08F099270D
:10099000EE0F979587950895E89409C097FB3EF46C
:1009A00090958095709561957F4F8F4F9F4F9923BC
:1009B000A9F0F92F96E9BB279395F695879577953A
:1009C0006795B795F111F8CFFAF4BB0F11F460FFFA
:1009D0001BC06F5F7F4F8F4F9F4F16C0882311F052
:1009E00096E911C0772321F09EE8872F762F05C066
:1009F000662371F096E8862F70E060E02AF09A9501
:100A0000660F771F881FDAF7880F9695879597F9F5
:100A1000089597F99F6780E870E060E008959FEF80
:100A200080EC089500240A94161617061806090685
:100A3000089500240A941216130614060506089554
:100A4000092E0394000C11F4882352F0BB0F40F4DC
:100A5000BF2B11F460FF04C06F5F7F4F8F4F9F4F1C
:100A6000089557FD9058440F551F59F05F3F71F09E
:100A70004795880F97FB991F61F09F3F79F0879505
:100A80000895121613061406551FF2CF4695F1DF8E
:100A900008C0161617061806991FF1CF869571051E
:100AA000610508940895E894BB2766277727CB0152
:100AB00097F908950BD0C4CFB5DF28F0BADF18F04E
:100AC000952309F0A6CFABCF1124EECFCADFA0F358
:100AD000959FD1F3950F50E0551F629FF001729FD3
:100AE000BB27F00DB11D639FAA27F00DB11DAA1FF2
:100AF000649F6627B00DA11D661F829F2227B00D3F
:100B0000A11D621F739FB00DA11D621F839FA00DC9
:100B1000611D221F749F3327A00D611D231F849F19
:100B2000600D211D822F762F6A2F11249F57504070
:100B30008AF0E1F088234AF0EE0FFF1FBB1F661F0B
:100B4000771F881F91505040A9F79E3F510570F0C4
:100B500060CFAACF5F3FECF3983EDCF386957795A4
:100B60006795B795F795E7959F5FC1F7FE2B880FBF
:100B7000911D9695879597F9089597FB072E16F482
:100B8000009406D077FD08D02DD007FC05D03EF4A8
:100B9000909581959F4F0895709561957F4F089529
:100BA000A1E21A2EAA1BBB1BFD010DC0AA1FBB1F71
:100BB000EE1FFF1FA217B307E407F50720F0A21BE3
:100BC000B30BE40BF50B661F771F881F991F1A9450
:100BD00069F760957095809590959B01AC01BD017A
:100BE000CF010895AA1BBB1B51E107C0AA1FBB1F61
:100BF000A617B70710F0A61BB70B881F991F5A95A9
:100C0000A9F780959095BC01CD0108950F931F938E
:100C1000CF93DF93CDB7DEB72E970FB6F894DEBF34
:100C20000FBECDBF0E891F8986E08C831A8309838E
:100C30008FEF9FE79E838D83AE01465E5F4F688D89
:100C4000798DCE01019610D0EF81F885E00FF11F6C
:100C500010822E960FB6F894DEBF0FBECDBFDF9187
:100C6000CF911F910F9108952F923F924F925F92D3
:100C70006F927F928F929F92AF92BF92CF92DF92AC
:100C8000EF92FF920F931F93CF93DF93CDB7DEB711
:100C90002B970FB6F894DEBF0FBECDBF6C017B0162
:100CA0008A01FC0117821682838181FFBFC1CE01B8
:100CB00001963C01F6019381F70193FD859193FF25
:100CC00081917F01882309F4ADC1853239F493FD08
:100CD000859193FF81917F01853221F4B60190E0E7
:100CE000D6D1E8CF912C212C312CFFE1F315D8F08F
:100CF0008B3279F038F4803279F08332A1F4232DED
:100D000020611DC08D3261F0803369F4232D216094
:100D100016C0832D8260382EE32DE4603E2E2AC05B
:100D2000F32DF8601DC037FC2DC020ED280F2A30B0
:100D300040F08E32B9F436FC75C1232D2064322E7A
:100D400019C036FE06C08AE0989E200D1124922E0E
:100D500011C0EAE02E9E200D1124222EF32DF06208
:100D60003F2E08C08C3621F4832D8068382E02C0B7
:100D7000883641F4F70193FD859193FF81917F01BE
:100D80008111B3CF982F9F7D9554933028F40C5F39
:100D90001F4F9FE399830DC0833631F0833771F085
:100DA000833509F055C020C0F801808189830E5F2A
:100DB0001F4F88248394912C530112C02801F2E024
:100DC0004F0E511CF801A080B18036FE03C0692D82
:100DD00070E002C06FEF7FEFC5014ED14C01820180
:100DE000F32DFF773F2E15C0280122E0420E511C43
:100DF000F801A080B18036FE03C0692D70E002C00A
:100E00006FEF7FEFC5012DD14C01F32DF0683F2E20
:100E1000820133FC19C0822D90E088169906A0F457
:100E2000B60180E290E033D12A94F5CFF50137FC8A
:100E3000859137FE81915F01B60190E028D12110A4
:100E40002A9421E0821A91088114910479F7E1C073
:100E5000843611F0893639F5F80137FE07C0608114
:100E60007181828193810C5F1F4F08C06081718105
:100E7000072E000C880B990B0E5F1F4FF32DFF768A
:100E80003F2E97FF09C090958095709561957F4F93
:100E90008F4F9F4FF0683F2E2AE030E0A30133D1FF
:100EA000882E861844C0853731F4232D2F7EB22E2C
:100EB0002AE030E025C0932D997FB92E8F36C1F0FE
:100EC00018F4883579F0AEC0803719F0883721F0F2
:100ED000A9C0E92FE061BE2EB4FE0DC0FB2DF46069
:100EE000BF2E09C034FE0AC0292F2660B22E06C0CC
:100EF00028E030E005C020E130E002C020E132E02F
:100F0000F801B7FE07C060817181828193810C5F17
:100F10001F4F06C06081718180E090E00E5F1F4F1F
:100F2000A301F1D0882E8618FB2DFF773F2E36FEC9
:100F30000DC0232D2E7FA22E891458F434FE0BC031
:100F400032FC09C0832D8E7EA82E05C0B82CA32CA0
:100F500003C0B82C01C0B92CA4FE0FC0FE01E80DDF
:100F6000F11D8081803321F49A2D997EA92E09C02C
:100F7000A2FE06C0B394B39404C08A2D867809F00B
:100F8000B394A3FC10C0A0FE06C0B21480F4280CD9
:100F9000922C9B180DC0B21458F4B60180E290E078
:100FA00076D0B394F8CFB21418F42B1802C0982C52
:100FB000212CA4FE0FC0B60180E390E068D0A2FE11
:100FC00016C0A1FC03C088E790E002C088E590E06D
:100FD000B6010CC08A2D867851F0A1FE02C08BE2CA
:100FE00001C080E2A7FC8DE2B60190E050D08914E8
:100FF00030F4B60180E390E04AD09A94F8CF8A9416
:10100000F301E80DF11D8081B60190E040D0811020
:10101000F6CF222009F44ECEB60180E290E037D020
:101020002A94F7CFF6018681978102C08FEF9FEF58
:101030002B960FB6F894DEBF0FBECDBFDF91CF91D8
:101040001F910F91FF90EF90DF90CF90BF90AF90E6
:101050009F908F907F906F905F904F903F902F90D8
:101060000895FC010590615070400110D8F78095FB
:1010700090958E0F9F1F0895FC0161507040019064
:101080000110D8F7809590958E0F9F1F08950F93AC
:101090001F93CF93DF93FB01238121FD03C08FEFCB
:1010A0009FEF2CC022FF16C04681578124813581D5
:1010B0004217530744F4A081B1819D012F5F3F4F38
:1010C000318320838C93268137812F5F3F4F378375
:1010D000268314C08B01EC01FB010084F185E02D17
:1010E0001995892BE1F6D80116968D919C91179749
:1010F000019617969C938E931697CE01DF91CF9110
:101100001F910F910895FA01AA27283051F120313B
:1011100081F1E8946F936E7F6E5F7F4F8F4F9F4F8B
:10112000AF4FB1E03ED0B4E03CD0670F781F891FCD
:101130009A1FA11D680F791F8A1F911DA11D6A0F9B
:10114000711D811D911DA11D20D009F468943F914E
:101150002AE0269F11243019305D3193DEF6CF014D
:101160000895462F4770405D4193B3E00FD0C9F713
:10117000F6CF462F4F70405D4A3318F0495D31FD80
:101180004052419302D0A9F7EACFB4E0A6959795D3
:10119000879577956795BA95C9F7009761057105A9
:1011A00008959B01AC010A2E0694579547953795F3
:1011B0002795BA95C9F7620F731F841F951FA01D4D
:0611C0000895F894FFCF32
:1011C60001300031002566006572726F7220320AA6
:1011D6000054656D702043616C6962726174200011
:1011E600476574746F627974650053706172726FCB
:1011F600770054656D7065723A200020202020002B
:10120600476574746F627974653A004C43445F496C
:04121600324300005F
:00000001FF
