:1000000071C000008EC000008CC000008AC00000DB
:1000100088C0000086C0000084C0000082C00000CC
:1000200080C000007EC000007CC000007AC00000DC
:1000300078C0000076C0000074C0000072C00000EC
:1000400070C0000033C100006CC000006AC0000036
:1000500068C0000066C0000064C0000062C000000C
:10006000C7C000005EC000005CC000005AC00000B5
:1000700058C0000056C0000054C0000052C000002C
:1000800050C000004EC000004CC000004AC000003C
:1000900048C0000046C0000044C0000042C000004C
:1000A00040C000003EC000003CC000003AC000005C
:1000B00038C0000036C0000034C0000032C000006C
:1000C00030C000002EC000002CC000002AC000007C
:1000D00028C0000026C0000024C0000022C000008C
:1000E00020C0000011241FBECFEFD1E2DEBFCDBF84
:1000F00000E00CBF12E0A0E0B2E0ECE6F7E000E0C8
:100100000BBF02C007900D92A439B107D9F723E0C5
:10011000A4E9B2E001C01D92AB39B207E1F7E2D227
:1001200023C36ECF87E690E09093C5008093C40010
:1001300088E98093C10008959091C00095FFFCCF9D
:100140008093C6000895CF93DF93EC0188818823C4
:1001500021F0219690E0F0DFF9CFDF91CF91089563
:100160001F93CF93DF9300D01F921F92CDB7DEB7BE
:1001700010E01530ACF42AE030E040E050E0D2D29C
:10018000E1E0F0E0EC0FFD1FE10FF11D17FDFA9526
:10019000605D6083622F732F842F952F1F5FE9CFDF
:1001A00014E011166CF4E1E0F0E0EC0FFD1FE10F3C
:1001B000F11D17FDFA958081803311F41150F1CFB4
:1001C00011236CF0E1E0F0E0EC0FFD1FE10FF11DF9
:1001D00017FDFA95808190E0AFDF1150F1CF0F90BD
:1001E0000F900F900F900F90DF91CF911F91089576
:1001F0001F920F920FB60F9211240BB60F928F938E
:100200009F93EF93FF939EB59093980280919B02EA
:10021000E82FF0E0E456FD4F90838F5F80939B02C0
:1002200080919A028F5F80939A0280939902FF9146
:10023000EF919F918F910F900BBE0F900FBE0F907B
:100240001F90189587E084B981E58CBD08958EBD17
:100250000DB407FEFDCF8EB590E008958EBD0DB4B0
:1002600007FEFDCF0895442379F0FB01408121E092
:1002700030E0F90102C0EE0FFF1F8A95E2F7CF01CF
:10028000842BFB018083089541110FC0FB01408145
:1002900021E030E0F90102C0EE0FFF1F8A95E2F77E
:1002A000CF0180958423FB01808308951F920F92D4
:1002B0000FB60F9211248F939F93AF93BF938091AA
:1002C000940290919502A0919602B09197020196A6
:1002D000A11DB11D8093940290939502A093960264
:1002E000B0939702BF91AF919F918F910F900FBEE6
:1002F0000F901F90189520E43FE140E050E012D2AB
:100300008AE080938100BB27A52F942F832F8093B1
:10031000890020938800EFE6F0E08081826080838E
:10032000089560E074E284EF90E0E5DFF89421E066
:1003300060E070E0CB01222351F060919402709153
:100340009502809196029091970220E0F4CF7894E4
:100350000895CF93C62F95B19E7F95B97FDF8C2FDF
:100360007DDF85B1816085B9CF9108950F931F938B
:10037000CF93DF93D62F8A0195B19E7F95B96EDF1B
:10038000C0E0CD1738F4F801EC0FF11D808166DF75
:10039000CF5FF7CF85B1816085B9DF91CF911F9194
:1003A0000F91089595B19E7F95B9806890E04FDFD9
:1003B00080E090E04CDF95B1916095B90895CF93BE
:1003C000DF93D82FC62FEEDFC0956C2F68238D2FBB
:1003D000C0DFDF91CF910895CF93DF93D82FC62F41
:1003E000E1DF682F6C2B8D2FB4DFDF91CF91089563
:1003F000CF938EE6D7DFC82F83E092E0A4DE6C2F88
:1004000070E080E090E0ACDEC03979F028F4C231D1
:10041000C1F0C83831F019C0C13959F0C23969F09A
:1004200014C088E192E08FDE13C084E292E08BDE9C
:100430000FC08DE292E087DE0BC086E392E083DEA0
:1004400007C08FE392E07FDE03C084E592E07BDEAD
:10045000CF91089588E2A6DF982F9370933021F012
:10046000682F636088E275CF089560E084E271DFF1
:1004700060E086E26EDF66E288E46BDF60E884E5D8
:1004800068DF69EA86E565DF63E088E562DF68EEDC
:100490008AE55FDF60E48AE25CDF6DE382E259DFD8
:1004A000D9CF08954F925F926F927F928F929F92D1
:1004B000AF92BF92CF92DF92EF92FF920F931F9372
:1004C000CF93DF93CDB7DEB7982EB62E3A01822EAA
:1004D000C114D10419F0F601508001C0512CF0E193
:1004E000AF9E500C112460E082E033DF6FE788E0BC
:1004F00030DF60E884E12DDFA301682D82E136DF83
:10050000652D8AE126DF692D82E023DF60E88AE13C
:1005100063DF07DF2B013C0124E2420E511C611C0A
:10052000711C88E03FDF982F9B2129F082E692E042
:100530000ADE81E00EC080FF05C082E792E003DEA4
:100540008BE534C0EEDE641575058605970548F326
:1005500080E0EBE4FDE13197F1F700C00000882373
:1005600001F18CE01FDF837129F08BE792E0EBDD76
:1005700081E01CC0012BA1F0E114F10489F084E1B9
:1005800011DFF7019081981770F0808388E10ADF0E
:100590008770C114D10449F0F601808380E006C061
:1005A00005C08BE503C08CE501C080E0DF91CF91F1
:1005B0001F910F91FF90EF90DF90CF90BF90AF9081
:1005C0009F908F907F906F905F904F9008958F9243
:1005D000AF92CF92DF92EF92FF920F931F938C2CEA
:1005E000AE2C680179018A01262FAC0160E38CE012
:1005F00059DF1F910F91FF90EF90DF90CF90AF9058
:100600008F9008958F929F92AF92BF92CF92EF9268
:100610000F931F93CF93DF931F921F92CDB7DEB737
:100620008A836115710521F1FA018081823010F110
:100630004A015B0160E88CE1C2DE87E08983C12C5E
:10064000E12C8E010F5F1F4F9401A50161E0CE01E7
:100650000296BDDFB82E88E892E075DD6B2D70E064
:1006600080E090E07DDD86E892E06DDD8B2D03C0BB
:100670008CE501C08CE50F900F90DF91CF911F9119
:100680000F91EF90CF90BF90AF909F908F90089573
:10069000AB01BC0186E2B6CF0895CF93DF9300D0C3
:1006A000CDB7DEB782E08B8360E084E252DE60E0AB
:1006B00086E24FDE66E288E44CDEBE016D5F7F4F6E
:1006C000CE010196E5DF882321F08A3521F481E00F
:1006D00003C081E001C080E00F900F900F90DF9188
:1006E000CF9108951FDD60E074E284EF90E003DEB7
:1006F000A9DD41E064E270E080E0B5DD79DEB5DEE1
:1007000087EA91E60197F1F700C0000071DE9FEBE8
:1007100027E289E0915020408040E1F700C00000CE
:10072000BCDFF4CFA1E21A2EAA1BBB1BFD010DC03A
:10073000AA1FBB1FEE1FFF1FA217B307E407F50791
:1007400020F0A21BB30BE40BF50B661F771F881F6D
:10075000991F1A9469F760957095809590959B0103
:0C076000AC01BD01CF010895F894FFCF5B
:10076C002566004669726D776172652056657273F5
:10077C00696F6E3A20306400203D2028636C6F6EE8
:10078C0065290A00203D2076302E300A00203D20BD
:10079C0076312E300A00203D2076322E300A002091
:1007AC003D20636F756E746572666569742063684D
:1007BC0069700A00203D2028756E6B6E6F776E296C
:1007CC000A007369676E616C20737563636573737C
:1007DC000A0054696D656F75740A00536F6D65205E
:1007EC006572726F72200A00737461747573202DB8
:0407FC002D3E00008E
:00000001FF
