:10000000A9C00000C6C00000C4C00000C2C00000FB
:10001000C0C00000BEC00000BCC00000BAC00000EC
:10002000B8C00000B6C00000B4C00000B2C00000FC
:10003000B0C00000AEC00000ACC00000AAC000000C
:10004000A8C00000A6C00000A4C00000A2C000001C
:10005000A0C000009EC000009CC000009AC000002C
:1000600098C0000096C0000094C0000092C000003C
:1000700090C000008EC000008CC000008AC000004C
:1000800088C0000086C0000084C0000082C000005C
:1000900080C000007EC000007CC000007AC000006C
:1000A00078C0000076C0000074C0000072C000007C
:1000B00070C000006EC000006CC000006AC000008C
:1000C00068C0000066C0000064C0000062C000009C
:1000D00060C000005EC000005CC000005AC00000AC
:1000E00058C00000EB02EF02EF02EF02DF02EF0266
:1000F000D302C702EF02EF02EF02EF02EF02EF02BC
:10010000EF02EF02EF02EF02EF02EF02EF02EF0267
:10011000EF02EF02EF02EF02EF02EF02EF02EF0257
:10012000EF02EF02E702EF02EF02EF02DB02EF0263
:10013000CF02C302EF02EF02EF02EF02EF02EF0283
:10014000EF02EF02E302EF02EF02EF02D702EF024B
:10015000CB02BF0211241FBECFEFD1E2DEBFCDBF65
:1001600000E00CBF12E0A0E0B2E0E6EFFAE000E051
:100170000BBF02C007900D92AC35B107D9F722E052
:10018000ACE5B2E001C01D92AE35B207E1F74DD249
:10019000B0C436CF87E690E09093C5008093C4004A
:1001A00088E98093C1000895E0ECF0E0908195FF2C
:1001B000FDCF8093C6000895CF93DF93EC01888133
:1001C000882331F0219690E0EFDF89918111FBCFF8
:1001D000DF91CF910895CF92DF92EF92FF920F932C
:1001E0001F93CF93DF936B017C01C7E0D0E001E068
:1001F00010E0C8010C2E02C0880F991F0A94E2F784
:10020000092E000CAA0BBB0B8C219D21AE21BF2116
:10021000892B8A2B8B2B21F480E390E0C5DF03C070
:1002200081E390E0C1DF219720F7DF91CF911F910B
:100230000F91FF90EF90DF90CF9008958F929F9253
:10024000AF92BF92EF92FF920F931F93CF93DF93E2
:1002500000D01F921F92CDB7DEB78E010F5F1F4FE8
:100260007E0126E0E20EF11C0F2EFAE08F2E912C7B
:10027000A12CB12CF02D04C08D81803381F01AC0E7
:10028000A5019401F8D3605DF80161938F01622F9D
:10029000732F842F952FEE15FF0591F7EDCF8C81ED
:1002A0008033B9F48B818033B1F48A818033A9F42F
:1002B00010E001C014E0E1E0F0E0EC0FFD1FE10F01
:1002C000F11D17FDFA95808190E06EDF11509AF7CD
:1002D00006C013E0F0CF12E0EECF11E0ECCF0F90AC
:1002E0000F900F900F900F90DF91CF911F910F9172
:1002F000FF90EF90BF90AF909F908F9008952D9AB0
:100300008FE99FE00197F1F700C000002D988FE979
:100310009FE00197F1F700C000000895EAE0F1E0E6
:1003200090819FEF908380930B01E9CF0895109205
:100330000A012F982E9A2D9A8FE99FE00197F1F7E5
:1003400000C000008091090180935D022D988FE923
:100350009FE00197F1F700C0000080915D020895D1
:10036000E6DF8823ECF381E090E00895CF93C82F77
:10037000F7DF892B29F02F982E988C2FCFDF09C01B
:1003800060915D0270E080E090E025DF8AE592E018
:1003900013DFCF91089581E0E9DF8FE39FE10197BB
:1003A000F1F700C00000089584B1806E84B92FEF8A
:1003B00080E792E0215080409040E1F700C00000CB
:1003C00088E3D4DF87EC90E00197F1F700C00000EC
:1003D00088E3CCDF87EC90E00197F1F700C00000E4
:1003E0008CE0C4DF90EF9A95F1F786E0BFDF20EF55
:1003F0002A95F1F7D0DF8FE19EE40197F1F700C075
:10040000000008952F9A2E9889CF08950F931F9377
:10041000CF93DF93EC0168EE73E01AD3162F6623B7
:1004200019F080E3860FEEDF28E13CEF129FC00158
:10043000139F900D11248C0F9D1F019704E610E06F
:10044000B80106D380E3860FDDDFCE01B80100D30B
:100450000AE010E0B801FCD280E3860FD3DFCE01C2
:10046000B801F6D2805DCEDFDF91CF911F910F9161
:1004700008951F93CF93DF93EC0168EE73E0E8D209
:10048000162F662319F080E3860FBCDF28E13CEFCE
:10049000129FC001139F900D11248C0F9D1F019777
:1004A00064E670E0D5D2662319F080E3860FAADFF8
:1004B000CE0164E670E0CCD26AE070E0C9D2662377
:1004C00019F080E3860F9EDFCE016AE070E0C0D2B3
:1004D000805D98DFDF91CF911F910895CF93DF93D7
:1004E000EC018881882341F021968CDF80EF8A958A
:1004F000F1F789918111F9CFDF91CF9108954FE004
:1005000030EF21E050E047B98FE99FE00197F1F724
:1005100000C0000038B98FE99FE00197F1F700C0F3
:10052000000086B1922F803F09F4952F992309F49A
:1005300058C090915C02992309F453C086B1E6B18A
:1005400080E787B98FE99FE00197F1F700C00000CD
:100550008FE888B98FE99FE00197F1F700C00000AC
:1005600086B1E82B8E2F90E0FC01E75BF109E833C0
:10057000F105A8F58827EE58FF4F8F4F9EC21092C5
:100580005C0281E3089510925C0282E30895109268
:100590005C0283E3089510925C0284E30895109254
:1005A0005C0285E3089510925C0286E30895109240
:1005B0005C0287E3089510925C0288E3089510922C
:1005C0005C0289E3089510925C028AE0089510921B
:1005D0005C0280E3089510925C0283E2089580E05B
:1005E0000895803F19F420935C028DCF50935C02F4
:1005F0008ACFBC0180E090E03AD12FE832EC41EBA9
:1006000051E4C3D120E030E04AE754E4A0D003D164
:10061000ECEAF0E0718360836081718180E090E0BA
:100620000DDE8AE592E0C8CD0895E0EAF0E0808131
:1006300082608083A1EAB0E08C9188618C938C9178
:1006400082608C9380E49CE99093A7008093A6003D
:10065000808188608083E1E0F1E080818062808336
:10066000A3DE98DD87E092E0A7DD80E87FDE25ED60
:100670002A95F1F700008EE192E030DF80EC76DE23
:1006800085ED8A95F1F700008EE292E027DF0330D6
:1006900011050CF03DC08CE392E08EDDB801012E17
:1006A000000C880B990BCADD8AE592E085DD27DF17
:1006B0008332B9F488E492E07FDD0150110960EDE6
:1006C0007FEF80E090E0BADD8AE592E075DD8DECA9
:1006D0004DDE95ED9A95F1F7000080ED9FEF96DEE7
:1006E00011C0C82FD0E0CE01C097C3DECE015CDDC3
:1006F0008AE592E061DD60E070E0CB019FDD8AE594
:1007000092E05ADD0F5F1F4F033011050CF4C3CF89
:100710008DEC2CDE25ED2A95F1F7000080E090E0CD
:1007200075DE80E090E065DF60E070E0CB0186DDA3
:100730008AE592E041DD8FEF97EA21E68150904013
:100740002040E1F700C0000026DE8CCF5058BB27C8
:10075000AA270ED0E0C0D1D030F0D6D020F031F4AE
:100760009F3F11F41EF4C6C00EF4E095E7FBBCC039
:10077000E92FE2D080F3BA17620773078407950761
:1007800018F071F49EF5FAC00EF4E0950B2EBA2F16
:10079000A02D0B01B90190010C01CA01A001112487
:1007A000FF27591B99F0593F50F4503E68F11A1633
:1007B000F040A22F232F342F4427585FF3CF4695C4
:1007C00037952795A795F0405395C9F77EF41F16E6
:1007D000BA0B620B730B840BBAF09150A1F0FF0FB0
:1007E000BB1F661F771F881FC2F70EC0BA0F621F9C
:1007F000731F841F48F4879577956795B795F7958C
:100800009E3F08F0B3CF9395880F08F09927EE0F1D
:1008100097958795089598D088F09F5790F0B92FB5
:100820009927B751A0F0D1F0660F771F881F991F45
:100830001AF0BA95C9F712C0B13081F09FD0B1E07B
:1008400008959CC0672F782F8827B85F39F0B93F8B
:10085000CCF3869577956795B395D9F73EF4909547
:100860008095709561957F4F8F4F9F4F0895E894C5
:1008700009C097FB3EF490958095709561957F4FE8
:100880008F4F9F4F9923A9F0F92F96E9BB27939596
:10089000F695879577956795B795F111F8CFFAF4A6
:1008A000BB0F11F460FF1BC06F5F7F4F8F4F9F4FD7
:1008B00016C0882311F096E911C0772321F09EE835
:1008C000872F762F05C0662371F096E8862F70E09B
:1008D00060E02AF09A95660F771F881FDAF7880F75
:1008E0009695879597F9089597F99F6780E870E046
:1008F00060E008959FEF80EC089500240A94161696
:10090000170618060906089500240A9412161306FD
:10091000140605060895092E0394000C11F488238B
:1009200052F0BB0F40F4BF2B11F460FF04C06F5FA7
:100930007F4F8F4F9F4F089557FD9058440F551F7D
:1009400059F05F3F71F04795880F97FB991F61F051
:100950009F3F79F087950895121613061406551FC8
:10096000F2CF4695F1DF08C0161617061806991F34
:10097000F1CF86957105610508940895E894BB2729
:1009800066277727CB0197F908950BD0C4CFB5DF41
:1009900028F0BADF18F0952309F0A6CFABCF1124C9
:1009A000EECFCADFA0F3959FD1F3950F50E0551F0E
:1009B000629FF001729FBB27F00DB11D639FAA27B4
:1009C000F00DB11DAA1F649F6627B00DA11D661F03
:1009D000829F2227B00DA11D621F739FB00DA11D24
:1009E000621F839FA00D611D221F749F3327A00DDE
:1009F000611D231F849F600D211D822F762F6A2F7A
:100A000011249F5750408AF0E1F088234AF0EE0FFE
:100A1000FF1FBB1F661F771F881F91505040A9F70B
:100A20009E3F510570F060CFAACF5F3FECF3983E38
:100A3000DCF3869577956795B795F795E7959F5F72
:100A4000C1F7FE2B880F911D9695879597F908950C
:100A500097FB072E16F4009406D077FD08D035D00A
:100A600007FC05D03EF4909581959F4F08957095B1
:100A700061957F4F0895A1E21A2EAA1BBB1BFD01B1
:100A80000DC0AA1FBB1FEE1FFF1FA217B307E4076D
:100A9000F50720F0A21BB30BE40BF50B661F771FC5
:100AA000881F991F1A9469F76095709580959095A5
:100AB0009B01AC01BD01CF010895EE0FFF1F881F00
:100AC0008BBF0790F691E02D1994AA1BBB1B51E137
:100AD00007C0AA1FBB1FA617B70710F0A61BB70BAE
:100AE000881F991F5A95A9F780959095BC01CD0153
:060AF0000895F894FFCF09
:100AF600256600300031000A20656E746572206636
:100B060069727374204E756D626572200A00456EB7
:100B160074657220416E676C6520666F720053655E
:100B260072766F28302D31383029200076616C7549
:100B360065206F6620613A004261636B7370616382
:0C0B4600652070726573736564200A00FE
:00000001FF
