:1000000071C000008EC000008CC000008AC00000DB
:1000100088C0000086C0000084C0000082C00000CC
:1000200080C000007EC000007CC000007AC00000DC
:1000300078C0000076C0000074C0000072C00000EC
:1000400070C000006EC000006CC000006AC00000FC
:1000500068C0000066C0000064C0000062C000000C
:1000600082C000005EC000005CC000005AC00000FA
:1000700058C0000056C0000054C0000052C000002C
:1000800050C000004EC000004CC000004AC000003C
:1000900048C0000046C0000044C0000042C000004C
:1000A00040C000003EC000003CC000003AC000005C
:1000B00038C0000036C0000034C0000032C000006C
:1000C00030C000002EC000002CC000002AC000007C
:1000D00028C0000026C0000024C0000022C000008C
:1000E00020C0000011241FBECFEFD1E2DEBFCDBF84
:1000F00000E00CBF12E0A0E0B2E0E0EFF2E000E0D0
:100100000BBF02C007900D92A831B107D9F723E0C9
:10011000A8E1B2E001C01D92AB31B207E1F78AD08D
:10012000E5C06ECF87E690E09093C5008093C40051
:1001300088E98093C1000895E0ECF0E0908195FF9C
:10014000FDCF8093C6000895CF93DF93EC018881A3
:10015000882331F0219690E0EFDF89918111FBCF68
:10016000DF91CF9108951F920F920FB60F92112435
:100170000BB60F928F939F93EF93FF939EB590933F
:10018000180280911B02E82FF0E0E45EFD4F90839F
:100190008F5F80931B0280911A028F5F80931A02F7
:1001A00080931902FF91EF919F918F910F900BBE59
:1001B0000F900FBE0F901F90189588E084B98CB5F2
:1001C00080648CBD8CB58C608CBD08958CB58F77A8
:1001D0008CBD08950DB407FEFDCF8EB50895EF9246
:1001E000FF921F93CF93DF931F92CDB7DEB77C01B1
:1001F000162F462F50E060E070E071D01982112375
:1002000091F080E001C0892F1EBC0DB407FEFDCF28
:100210009EB5998391E0980F2981F701E80FF11DB0
:1002200020831913F0CF0F90DF91CF911F91FF9092
:10023000EF900895CF93DF93CDB7DEB7EC970FB66D
:10024000F894DEBF0FBECDBF6DDFB7DFBFDF8EE13D
:10025000FE013196DF01982F1D929A95E9F77E965F
:10026000DF011D928A95E9F7789483E092E06CDFD4
:10027000FE0131967F018E01015E1F4F0F2EFEE1C0
:10028000DF2EF02D8FE891E00197F1F700C000001C
:1002900063E1C701A4DF6BE0C801A1DF9BDF90E051
:1002A0004BDF86E192E050DFC7014EDF86E192E04E
:1002B0004BDFC80149DF86E192E046DFD701ED2D33
:1002C0001D92EA95E9F7D801ED2D1D92EA95E9F71F
:1002D0008FE891E00197F1F700C00000D3CFDC0177
:1002E00001C06D9341505040E0F70895F894FFCF5E
:1002F0002566005350492D536C6176652D726563F8
:08030000656976696E670A0069
:00000001FF
