S00F0000657370383236362E73726563F7
S113000071C000008FC000008DC000008BC00000D4
S113001089C0000087C0000085C0000083C00000C4
S113002081C000007FC000007DC000007BC00000D4
S113003079C0000077C0000075C0000073C00000E4
S113004071C0000070C000006DC000006BC00000F3
S113005069C0000067C0000065C0000063C0000004
S113006061C000003CC200005DC000005BC0000035
S113007059C0000057C0000055C0000053C0000024
S113008051C000004FC000004DC000004BC0000034
S113009070C2000047C0000045C0000043C000001B
S11300A041C000003FC000003DC000003BC0000054
S11300B039C0000037C0000035C0000033C0000064
S11300C031C000002FC000002DC000002BC0000074
S11300D029C0000027C0000025C0000023C0000084
S11300E021C0000011241FBECFEFD1E2DEBFCDBF7F
S11300F000E00CBF16E0A0E0B2E0EAEAF3E100E0C1
S11301000BBF02C007900D92AC3BB107D9F729E0B1
S1130110ACEBB6E001C01D92A235B207E1F75AD4A8
S11301200C94D3096DCF1F920F920FB60F92112426
S11301308F939F93AF93BF9380914E0990914F09F2
S1130140A0915009B09151090196A11DB11D809350
S11301504E0990934F09A0935009B0935109BF9150
S1130160AF919F918F910F900FBE0F901F90189594
S113017020E43FE140E050E0E5D58AE0809381004F
S1130180BB27A52F942F832F809389002093880069
S1130190EFE6F0E0808182608083089560E074E29D
S11301A084EF90E0E5DFF89460914E0970914F0977
S11301B080915009909151097894089587E690E0D0
S11301C09093C5008093C40088E98093C10008958A
S11301D0E0ECF0E0908195FFFDCF8093C600089598
S11301E0CF93DF93EC018881882331F0219690E04E
S11301F0EFDF89918111FBCFDF91CF9108958F9229
S11302009F92AF92BF92EF92FF920F931F93CF935F
S1130210DF9300D01F921F92CDB7DEB78E010F5F20
S11302201F4F7E0126E0E20EF11C0F2EFAE08F2E06
S1130230912CA12CB12CF02D04C08D81803381F040
S11302401AC0A50194017ED5605DF80161938F0108
S1130250622F732F842F952FEE15FF0591F7EDCFA5
S11302608C818033B9F48B818033B1F48A818033FB
S1130270A9F410E001C014E0E1E0F0E0EC0FFD1F90
S1130280E10FF11D17FDFA95808190E0A1DF115077
S11302909AF706C013E0F0CF12E0EECF11E0ECCFF6
S11302A00F900F900F900F900F90DF91CF911F91AF
S11302B00F91FF90EF90BF90AF909F908F90089513
S11302C088E090E09093CD008093CC0088E98093FF
S11302D0C9000895E8ECF0E0908195FFFDCF80938C
S11302E0CE000895CF93DF93EC018881882329F011
S11302F02196F0DF89918111FCCFDF91CF91089590
S113030085B5826085BD16BCE1E0F1E08081806145
S11303108083E2E0F1E080818F7E80832FEF80EEA6
S113032090E0215080409040E1F700C000008081BF
S11303308061808316BC86B58135E8F3E1E0F1E0A5
S113034080818F7E808308958091000184FD0DC09B
S113035016BC86B58B3AE8F38091000184FF08C08F
S113036016BC86B58B3AE8F3089581E090E00895D1
S113037082E090E008950F931F93CF93DF931F9231
S1130380CDB7DEB71982A9E4B9E06EE479E0E0E024
S1130390F1E041E050E091E027E030E016BC8081DC
S11303A084FD0BC086B58837D0F366B570E080E075
S11303B090E025DF8CE090E063C016BC808184FF70
S11303C00FC086B58B3A38F081E090E059C086B50D
S11303D08B3A08F04DC086B58983808184FDF7CFC0
S11303E019810981892F183208F480E0882391F05B
S11303F0892F073408F080E0882361F08A01022EF7
S113040002C0000F111F0A94E2F700958C91082393
S11304100C9318C009811981892F083708F480E0EA
S1130420882349F1892F1B3A08F080E0882319F1C9
S11304308C918A01022E02C0000F111F0A94E2F768
S1130440082B0C932150310908F0A8CF11966A1794
S11304507B0709F0A1CFE9E4F9E090818181890F5C
S11304609281980F8381890F9481891307C008C0F2
S113047081E090E005C082E090E002C083E090E07B
S11304800F90DF91CF911F910F91089539DF5CDFB9
S113049072CF0895CF92DF92EF92FF92CF93DF93C2
S11304A0C9E4D9E06B8170E080E090E05CD32DEC8E
S11304B03CEC4CEC5DE3E3D36B017C016A8170E0BE
S11304C080E090E050D39B01AC01C701B601B9D2E2
S11304D0DF91CF91FF90EF90DF90CF9008951F921E
S11304E00F920FB60F9211240BB60F922F933F93D6
S11304F04F935F936F937F938F939F93AF93BF9328
S1130500CF93EF93FF93C091C6008C2F90E060DEF1
S11305108091C308E82FF0E0EC53F74FC0838F5F5E
S1130520813218F48093C30802C01092C3088091EA
S1130530C2088F5F813218F48093C20806C080E23B
S11305408093C20881E08093C108FF91EF91CF911D
S1130550BF91AF919F918F917F916F915F914F91D7
S11305603F912F910F900BBE0F900FBE0F901F90D5
S113057018951F920F920FB60F9211240BB60F927B
S11305808F939F93EF93FF939091CE009093BD0729
S11305908091C107E82FF0E0EE53F84F90838F5F0E
S11305A08093C1078091BF078F5F8093BF078093BB
S11305B0BE07FF91EF919F918F910F900BBE0F900B
S11305C00FBE0F901F9018959091C007E92FF0E08F
S11305D0EE53F84F80819F5F9093C0079091BF07BF
S11305E0992319F091509093BF070895EEEBF6E02C
S11305F001900020E9F73197EE5BF640EF3FF105FB
S11306002CF4BC018EEB96E0D9D39C01C90108956A
S11306108F929F92AF92BF92CF92DF92EF92FF920E
S11306201F93CF93DF93EC016B01B8DD4B015C01A9
S11306308FEFEEEBF6E0DF011D928A95E9F710E00B
S1130640E12CF12CABDDDC01CB0188199909AA0955
S1130650BB098C159D05AE05BF0580F48091BF07CD
S1130660882381F3B1DFE12FF0E0E254F94F808376
S11306701F5FCE01BBDF892B29F305C0111106C012
S113068082E090E005C081E090E002C080E090E06C
S1130690DF91CF911F91FF90EF90DF90CF90BF90AB
S11306A0AF909F908F9008958EE292E01BDE68EEEB
S11306B073E08BE392E0ACDF019739F56AE370E015
S11306C08EEB96E061D3009719F1FC01818190E0F3
S11306D0C0979093BD068093BC06019719F48BE5EF
S11306E092E07EDD8091BC069091BD06029719F4DC
S11306F08EE392E075DD8091BC069091BD06039770
S113070039F484E592E06CCD08958EEB96E068CDE3
S1130710089582E792E0E6DD68EE73E08BE392E011
S113072077DF0197B1F46AE370E08EEB96E02CD3A7
S1130730009791F0FC01818190E0C09721F48FE74C
S113074092E04ECD0895019739F489EA92E048CDBC
S113075008958EEB96E044CD08950F931F93CF93A5
S1130760DF93CDB7DEB764970FB6F894DEBF0FBE44
S1130770CDBF85ED92E0B6DD68EE73E08BE392E0E9
S113078047DF019749F561EE72E08EEB96E016D3F0
S1130790892B19F087EE92E023DD6BEF72E08EEB8C
S11307A096E00CD30097D9F08C01085F1F4F62E2EA
S11307B070E0C801E9D2AC01401B510BB801CE0175
S11307C00196EDD283E093E00BDDCE01019608DDC6
S11307D089E293E005DD03C08EEB96E001DD6496CB
S11307E00FB6F894DEBF0FBECDBFDF91CF911F913E
S11307F00F91089559DF8DDFB0DF81EF94E0F0CCE5
S113080008950F931F93CF93DF93CDB7DEB7C456EC
S1130810D1090FB6F894DEBF0FBECDBF7F936F939F
S11308209F938F9381E095E09F938F938E010F5F49
S11308301F4F1F930F93DCD2C80154DD60ED77E0A6
S11308408BE392E0E5DE0FB6F894DEBF0FBECDBFBA
S11308508130910521F48DE195E0C2DC05C0892B3E
S113086019F482E495E0BCDCCC59DF4F0FB6F89460
S1130870DEBF0FBECDBFDF91CF911F910F910895C1
S1130880E5EEF8E024E6DF011D922A95E9F77F936F
S11308906F939F938F938BE695E09F938F93FF9332
S11308A0EF93A6D285EE98E09BDC89E293E098DC96
S11308B08DB79EB708960FB6F8949EBF0FBE8DBF36
S11308C085EE98E008950F931F93CF93DF93CDB7F0
S11308D0DEB72F970FB6F894DEBF0FBECDBF9C01D5
S11308E0CB01B901CDDFFC0101900020E9F731977C
S11308F0E81BF90BFF93EF9383E895E09F938F93A5
S11309008E010F5F1F4F1F930F9372D2C801EADC51
S113091060ED77E083E995E07BDE8EEB96E060DCCA
S11309200F900F900F900F900F900F902F960FB67F
S1130930F894DEBF0FBECDBFDF91CF911F910F9111
S113094008950F931F93CF93DF93CDB7DEB7C456AB
S1130950D1090FB6F894DEBF0FBECDBF8E010F5F75
S11309601F4F24E6F80111922A95E9F77F936F93BC
S11309709F938F938BE695E09F938F931F930F9391
S113098037D2C8012DDCC801ADDC60ED77E085E924
S113099095E03EDE89E293E023DCFFEF21EE84E084
S11309A0F15020408040E1F700C000008EEB96E05B
S11309B017DC0FB6F894DEBF0FBECDBFCC59DF4FA6
S11309C00FB6F894DEBF0FBECDBFDF91CF911F915C
S11309D00F91089560E074E284EF90E0C9DBEEDBF0
S11309E06FDC8BE995E0FCDB89E293E0F9DB02DF65
S11309F078944CDD4FDD89D0C62F8EEE95E0F0DB88
S1130A006C2F70E080E090E0FADB89E293E0E8DBB1
S1130A1060E570E084EF95E0F4DED0E068E576E030
S1130A20CE0151DFBE0188E596E08BDF2FEF87EA28
S1130A3091E6215080409040E1F700C00000D9CFFA
S1130A405058BB27AA270ED0E0C0D1D030F0D6D062
S1130A5020F031F49F3F11F41EF4C6C00EF4E0956B
S1130A60E7FBBCC0E92FE2D080F3BA176207730733
S1130A708407950718F071F49EF5FAC00EF4E0951A
S1130A800B2EBA2FA02D0B01B90190010C01CA0144
S1130A90A0011124FF27591B99F0593F50F4503EEF
S1130AA068F11A16F040A22F232F342F4427585FE1
S1130AB0F3CF469537952795A795F0405395C9F7F9
S1130AC07EF41F16BA0B620B730B840BBAF09150B1
S1130AD0A1F0FF0FBB1F661F771F881FC2F70EC050
S1130AE0BA0F621F731F841F48F487957795679523
S1130AF0B795F7959E3F08F0B3CF9395880F08F00C
S1130B009927EE0F97958795089598D088F09F5769
S1130B1090F0B92F9927B751A0F0D1F0660F771F45
S1130B20881F991F1AF0BA95C9F712C0B13081F025
S1130B309FD0B1E008959CC0672F782F8827B85FB5
S1130B4039F0B93FCCF3869577956795B395D9F786
S1130B503EF490958095709561957F4F8F4F9F4F90
S1130B600895E89409C097FB3EF49095809570959C
S1130B7061957F4F8F4F9F4F9923A9F0F92F96E9E5
S1130B80BB279395F695879577956795B795F1115A
S1130B90F8CFFAF4BB0F11F460FF1BC06F5F7F4FF7
S1130BA08F4F9F4F16C0882311F096E911C0772309
S1130BB021F09EE8872F762F05C0662371F096E812
S1130BC0862F70E060E02AF09A95660F771F881FE1
S1130BD0DAF7880F9695879597F9089597F99F679F
S1130BE080E870E060E008959FEF80EC08950024B1
S1130BF00A941616170618060906089500240A947E
S1130C0012161306140605060895092E0394000C03
S1130C1011F4882352F0BB0F40F4BF2B11F460FF92
S1130C2004C06F5F7F4F8F4F9F4F089557FD9058BB
S1130C30440F551F59F05F3F71F04795880F97FB9C
S1130C40991F61F09F3F79F0879508951216130656
S1130C501406551FF2CF4695F1DF08C01616170685
S1130C601806991FF1CF86957105610508940895BA
S1130C70E894BB2766277727CB0197F908950BD013
S1130C80C4CFB5DF28F0BADF18F0952309F0A6CF5A
S1130C90ABCF1124EECFCADFA0F3959FD1F3950F0C
S1130CA050E0551F629FF001729FBB27F00DB11DEC
S1130CB0639FAA27F00DB11DAA1F649F6627B00D7C
S1130CC0A11D661F829F2227B00DA11D621F739F65
S1130CD0B00DA11D621F839FA00D611D221F749F73
S1130CE03327A00D611D231F849F600D211D822FBA
S1130CF0762F6A2F11249F5750408AF0E1F0882301
S1130D004AF0EE0FFF1FBB1F661F771F881F91500D
S1130D105040A9F79E3F510570F060CFAACF5F3FC6
S1130D20ECF3983EDCF3869577956795B795F79540
S1130D30E7959F5FC1F7FE2B880F911D96958795C8
S1130D4097F90895A1E21A2EAA1BBB1BFD010DC041
S1130D50AA1FBB1FEE1FFF1FA217B307E407F50767
S1130D6020F0A21BB30BE40BF50B661F771F881F43
S1130D70991F1A9469F760957095809590959B01D9
S1130D80AC01BD01CF010895FC018191861721F0CA
S1130D908823D9F7992708953197CF010895FB0146
S1130DA0DC014150504048F001900D920020C9F7F9
S1130DB001C01D9241505040E0F70895FB0151914C
S1130DC05523A9F0BF01DC014D9145174111E1F70D
S1130DD059F4CD010190002049F04D914015411185
S1130DE0C9F3FB014111EFCF81E090E00197089531
S1130DF00F931F93CF93DF93CDB7DEB72E970FB624
S1130E00F894DEBF0FBECDBF0E891F8986E08C83A8
S1130E101A8309838FEF9FE79E838D83AE01465E1D
S1130E205F4F688D798DCE01019610D0EF81F885E2
S1130E30E00FF11F10822E960FB6F894DEBF0FBE9E
S1130E40CDBFDF91CF911F910F9108952F923F92C3
S1130E504F925F926F927F928F929F92AF92BF92C6
S1130E60CF92DF92EF92FF920F931F93CF93DF9372
S1130E70CDB7DEB72B970FB6F894DEBF0FBECDBF4C
S1130E806C017B018A01FC0117821682838181FF38
S1130E90BFC1CE0101963C01F6019381F70193FD98
S1130EA0859193FF81917F01882309F4ADC1853237
S1130EB039F493FD859193FF81917F01853221F46B
S1130EC0B60190E0D6D1E8CF912C212C312CFFE152
S1130ED0F315D8F08B3279F038F4803279F083321C
S1130EE0A1F4232D20611DC08D3261F0803369F49B
S1130EF0232D216016C0832D8260382EE32DE460FB
S1130F003E2E2AC0F32DF8601DC037FC2DC020ED05
S1130F10280F2A3040F08E32B9F436FC75C1232DE7
S1130F202064322E19C036FE06C08AE0989E200D39
S1130F301124922E11C0EAE02E9E200D1124222E9F
S1130F40F32DF0623F2E08C08C3621F4832D806887
S1130F50382E02C0883641F4F70193FD859193FF42
S1130F6081917F018111B3CF982F9F7D9554933048
S1130F7028F40C5F1F4F9FE399830DC0833631F033
S1130F80833771F0833509F055C020C0F8018081A2
S1130F9089830E5F1F4F88248394912C530112C0C0
S1130FA02801F2E04F0E511CF801A080B18036FEFA
S1130FB003C0692D70E002C06FEF7FEFC5014ED111
S1130FC04C018201F32DFF773F2E15C0280122E04A
S1130FD0420E511CF801A080B18036FE03C0692D79
S1130FE070E002C06FEF7FEFC5012DD14C01F32DEE
S1130FF0F0683F2E820133FC19C0822D90E08816E0
S11310009906A0F4B60180E290E033D12A94F5CF9A
S1131010F50137FC859137FE81915F01B60190E0BF
S113102028D121102A9421E0821A91088114910474
S113103079F7E1C0843611F0893639F5F80137FEC5
S113104007C060817181828193810C5F1F4F08C04A
S113105060817181072E000C880B990B0E5F1F4F66
S1131060F32DFF763F2E97FF09C0909580957095DC
S113107061957F4F8F4F9F4FF0683F2E2AE030E0FD
S1131080A30133D1882E861844C0853731F4232D2B
S11310902F7EB22E2AE030E025C0932D997FB92E01
S11310A08F36C1F018F4883579F0AEC0803719F066
S11310B0883721F0A9C0E92FE061BE2EB4FE0DC02F
S11310C0FB2DF460BF2E09C034FE0AC0292F266010
S11310D0B22E06C028E030E005C020E130E002C0B6
S11310E020E132E0F801B7FE07C06081718182819E
S11310F093810C5F1F4F06C06081718180E090E096
S11311000E5F1F4FA301F1D0882E8618FB2DFF77A9
S11311103F2E36FE0DC0232D2E7FA22E891458F4A7
S113112034FE0BC032FC09C0832D8E7EA82E05C070
S1131130B82CA32C03C0B82C01C0B92CA4FE0FC03A
S1131140FE01E80DF11D8081803321F49A2D997EF2
S1131150A92E09C0A2FE06C0B394B39404C08A2D7C
S1131160867809F0B394A3FC10C0A0FE06C0B214A4
S113117080F4280C922C9B180DC0B21458F4B601BC
S113118080E290E076D0B394F8CFB21418F42B1820
S113119002C0982C212CA4FE0FC0B60180E390E07D
S11311A068D0A2FE16C0A1FC03C088E790E002C08C
S11311B088E590E0B6010CC08A2D867851F0A1FE36
S11311C002C08BE201C080E2A7FC8DE2B60190E090
S11311D050D0891430F4B60180E390E04AD09A9458
S11311E0F8CF8A94F301E80DF11D8081B60190E0F7
S11311F040D08110F6CF222009F44ECEB60180E211
S113120090E037D02A94F7CFF6018681978102C007
S11312108FEF9FEF2B960FB6F894DEBF0FBECDBFB6
S1131220DF91CF911F910F91FF90EF90DF90CF90BE
S1131230BF90AF909F908F907F906F905F904F90F2
S11312403F902F900895FC0105906150704001106B
S1131250D8F7809590958E0F9F1F0895FC016150DB
S1131260704001900110D8F7809590958E0F9F1FC4
S113127008950F931F93CF93DF93FB01238121FDE7
S113128003C08FEF9FEF2CC022FF16C04681578109
S1131290248135814217530744F4A081B1819D0113
S11312A02F5F3F4F318320838C93268137812F5FBB
S11312B03F4F3783268314C08B01EC01FB0100846C
S11312C0F185E02D1995892BE1F6D80116968D91BB
S11312D09C911797019617969C938E931697CE011F
S11312E0DF91CF911F910F910895FA01AA27283019
S11312F051F1203181F1E8946F936E7F6E5F7F4FDF
S11313008F4F9F4FAF4FB1E03ED0B4E03CD0670F5A
S1131310781F891F9A1FA11D680F791F8A1F911DAD
S1131320A11D6A0F711D811D911DA11D20D009F4FD
S113133068943F912AE0269F11243019305D31933F
S1131340DEF6CF010895462F4770405D4193B3E028
S11313500FD0C9F7F6CF462F4F70405D4A3318F0CF
S1131360495D31FD4052419302D0A9F7EACFB4E080
S1131370A6959795879577956795BA95C9F7009738
S11313806105710508959B01AC010A2E06945795D9
S1131390479537952795BA95C9F7620F731F841F30
S10D13A0951FA01D0895F894FFCFD7
S11313AA2566006572726F7220320A00204E756DCE
S11313BA626572206F662063686172616374657224
S11313CA73207265636569766564203A2000415426
S11313DA2B43574D4F44453F0D0A004F4B00536F63
S11313EA66744150206D6F64652073656C6563741F
S11313FA65640A00536F667441502B5374617469AF
S113140A6F6E206D6F64652073656C6563746564C3
S113141A0A0041542B4349504D55583F0D0A005375
S113142A696E676C6520636F6E6E656374696F6E4F
S113143A202D20636F6E6669677572656420617317
S113144A20636C69656E740A006D756C7469706CDE
S113145A6520636F6E6E656374696F6E202D2063F9
S113146A6F6E66696775726564206173207365724D
S113147A7665720A0041542B43574A41503F0D0A7C
S113148A004E6F204150004E6F2041502069732056
S113149A636F6E6E65637465640A002B43574A4131
S11314AA503A00436F6E6E656374656420746F20EE
S11314BA576966693A0041542B43574A41503D22C1
S11314CA2573222C222573220D0A005769466920A6
S11314DA69732020636F6E6E656374656420746F2C
S11314EA203A004572726F7220696E20636F6E6EC5
S11314FA656374696E6720746F203A00436F6E6E79
S113150A656374696F6E2074696D656F7574200AFA
S113151A0057726F6E672070617373776F726420FD
S113152A0A0063616E6E6F742066696E6420746863
S113153A65207461726765742041500A00636F6E96
S113154A6E656374696F6E206661696C6564200AEE
S113155A0041542B43575141500D0A0057494649FB
S113156A20444953434F4E4E454354005749464934
S113157A2069732020646973636F6E6E6563746592
S113158A6420200A005749464920697320616C7215
S113159A6561647920646973636F6E6E65637465EB
S11315AA64200A0041542B43494653520D0A004908
S11315BA502061646472657373206973200A002B76
S11315CA43494653523A53544149500049502061C1
S11315DA646472657373206F662053746174696FEF
S11315EA6E206973203A002B43494653523A5354A6
S11315FA414D4143000A204D616320616464726570
S113160A7373206F662053746174696F6E206973F3
S113161A203A002B43494653523A41504950004913
S113162A502061646472657373206F6620536F6619
S113163A744150206973203A002B43494653523A65
S113164A41504D4143000A204D6163206164647234
S113165A657373206F6620536F66744150206973F3
S113166A203A0041542B43574C41500D0A00576904
S113167A4669206E6574776F726B73206E6561724A
S113168A206172653A200A0041542B5253540D0AC0
S113169A000A534554415020436F6D6D616E640ACC
S11316AA0041542B43495053544152543D2254430C
S11316BA50222C222573222C25750D0A000A205348
S11316CA75636365737366756C6C7920636F6E6E8C
S11316DA656374656420746F20736572766572201D
S11316EA0A000A20416C726561647920636F6E6E28
S11316FA656374656420746F2073657276657220FD
S113170A0A004745542025730D0A004745542025ED
S113171A733D25750D0A004745542025733D2573ED
S113172A0D0A0041542B43495053454E443D2575F7
S113173A0D0A003E00434C4F5345002A2A2A2A2AFE
S113174A2A2A2A2A2A2A2A2A2A2A2A2A2A45535081
S113175A3832363620415420436F6D6D616E64739E
S113176A206669726D7761726520287573696E6780
S113177A20656D6265646465642043292A2A2A2ADD
S113178A2A2A2A2A2A2A2A2A2A2A2A2A2A00546570
S113179A6D7020006170692E7468696E6773706574
S11317AA616B2E636F6D00000000000000000000F2
S11317BA000000000000000000000000000000001B
S11317CA000000000000000000000000000000000B
S11317DA00000000000000000000000000000000FB
S11317EA00000000000000000000000000000000EB
S11317FA00000000000000002F7570646174653FEA
S113180A6170695F6B65793D4B383650544E394F78
S113181A50414E5757384D46266669656C64310007
S113182A00000000000000000000000000000000AA
S113183A000000000000000000000000000000009A
S113184A000000000000000000000000000000008A
S10F185A0000000000000000000000007E
S9030000FC
