:10000000F2C0000010C100000EC100000CC10000D1
:100010000AC1000008C1000006C1000004C10000C0
:1000200002C1000000C10000FEC00000FCC00000D2
:10003000FAC00000F8C00000F6C00000E1C60000F1
:10004000F2C00000F1C00000EEC00000ECC00000F3
:10005000EAC00000E8C00000E6C00000E4C0000004
:10006000E2C0000095C30000DEC00000DCC000005C
:10007000DAC00000D8C00000D6C00000D4C0000024
:10008000D2C00000D0C00000CEC00000CCC0000034
:10009000C9C30000C8C00000C6C00000C4C0000042
:1000A000C2C00000C0C00000BEC00000BCC0000054
:1000B000BAC00000B8C00000B6C00000B4C0000064
:1000C000B2C00000B0C00000AEC00000ACC0000074
:1000D000AAC00000A8C00000A6C00000A4C0000084
:1000E000A2C000006E616E00696E660000407A106A
:1000F000F35A00A0724E18090010A5D4E80000E8D9
:100100007648170000E40B54020000CA9A3B000036
:1001100000E1F505000080969800000040420F00C5
:100120000000A08601000000102700000000E80386
:10013000000000006400000000000A000000000051
:100140000100000000002C76D888DC674F0823DF10
:10015000C1DFAE59E1B1B796E5E3E453C63AE651E3
:10016000997696E8E6C28426EB898C9B62ED407C0A
:100170006FFCEFBC9C9F40F2BAA56FA5F490055AA6
:100180002AF75C936B6CF9676DC11BFCE0E40D47CB
:10019000FEF520E6B500D0ED902E030094357705EE
:1001A0000080841E080000204E0A000000C80C33A6
:1001B0003333330F986E12831141EF8D2114893B35
:1001C000E65516CFFEE6DB18D1844B381BF77C1DB5
:1001D000901DA4BBE424203284725E228100C9F108
:1001E00024ECA1E53D2711241FBECFEFD1E2DEBFF5
:1001F000CDBF00E00CBF17E0A0E0B2E0EAECFDE10B
:1002000000E00BBF02C007900D92A631B107D9F7ED
:1002100029E0A6E1B7E001C01D92A73BB207E1F7D4
:100220005AD60C94E30EECCE1F920F920FB60F929B
:1002300011248F939F93AF93BF938091B3099091B3
:10024000B409A091B509B091B6090196A11DB11DDF
:100250008093B3099093B409A093B509B093B609FC
:10026000BF91AF919F918F910F900FBE0F901F90F4
:10027000189520E43FE140E050E00E94D70C8AE06E
:1002800080938100BB27A52F942F832F8093890013
:1002900020938800EFE6F0E08081826080830895FB
:1002A00060E074E284EF90E0E4DFF8946091B309D9
:1002B0007091B4098091B5099091B6097894089528
:1002C00087E690E09093C5008093C40088E980930E
:1002D000C1000895E0ECF0E0908195FFFDCF8093A0
:1002E000C6000895CF93DF93EC018881882331F015
:1002F000219690E0EFDF89918111FBCFDF91CF91C3
:1003000008958F929F92AF92BF92EF92FF920F93B8
:100310001F93CF93DF9300D01F921F92CDB7DEB70C
:100320008E010F5F1F4F7E0126E0E20EF11C0F2EA3
:10033000FAE08F2E912CA12CB12CF02D04C08D81D0
:10034000803389F01BC0A50194010E94D70C605D29
:10035000F80161938F01622F732F842F952FEE1573
:10036000FF0589F7ECCF8C818033B9F48B81803322
:10037000B1F48A818033A9F410E001C014E0E1E017
:10038000F0E0EC0FFD1FE10FF11D17FDFA958081E4
:1003900090E0A0DF11509AF706C013E0F0CF12E012
:1003A000EECF11E0ECCF0F900F900F900F900F90C9
:1003B000DF91CF911F910F91FF90EF90BF90AF9081
:1003C0009F908F90089588E090E09093CD00809367
:1003D000CC0088E98093C9000895E8ECF0E09081B2
:1003E00095FFFDCF8093CE000895CF93DF93EC016E
:1003F0008881882329F02196F0DF89918111FCCF33
:10040000DF91CF91089585B5826085BD16BCE1E08E
:10041000F1E0808180618083E2E0F1E080818F7E85
:1004200080832FEF80EE90E0215080409040E1F7F4
:1004300000C0000080818061808316BC86B5813554
:10044000E8F3E1E0F1E080818F7E80830895809180
:10045000000184FD0DC016BC86B58B3AE8F380918F
:10046000000184FF08C016BC86B58B3AE8F30895F6
:1004700081E090E0089582E090E008950F931F934B
:10048000CF93DF931F92CDB7DEB71982AEEAB9E002
:1004900063EB79E0E0E0F1E041E050E091E027E05B
:1004A00030E016BC808184FD0BC086B58837D0F360
:1004B00066B570E080E090E024DF8CE090E063C0FF
:1004C00016BC808184FF0FC086B58B3A38F081E07E
:1004D00090E059C086B58B3A08F04DC086B5898347
:1004E000808184FDF7CF19810981892F183208F4A2
:1004F00080E0882391F0892F073408F080E088237A
:1005000061F08A01022E02C0000F111F0A94E2F767
:1005100000958C9108230C9318C009811981892FAB
:10052000083708F480E0882349F1892F1B3A08F046
:1005300080E0882319F18C918A01022E02C0000FFD
:10054000111F0A94E2F7082B0C932150310908F08F
:10055000A8CF11966A177B0709F0A1CFEEEAF9E060
:1005600090818181890F9281980F8381890F948175
:10057000891307C008C081E090E005C082E090E0E8
:1005800002C083E090E00F90DF91CF911F910F9117
:10059000089539DF5CDF72CF0895CF92DF92EF923A
:1005A000FF92CF93DF93CEEAD9E06B8170E080E0D9
:1005B00090E085D52DEC3CEC4CEC5DE30CD66B016A
:1005C0007C016A8170E080E090E079D59B01AC010C
:1005D000C701B601DDD4DF91CF91FF90EF90DF909E
:1005E000CF90089588E48093B8001092B9000895E0
:1005F00084EA8093BC00ECEBF0E080818823ECF788
:10060000E9EBF0E08081887F8830E1F708958093FE
:10061000BB0084E88093BC00ECEBF0E08081882391
:10062000ECF7E9EBF0E08081887F8831E1F708950D
:100630008093BB0084E88093BC00ECEBF0E0808109
:100640008823ECF7E9EBF0E08081887F8832E1F7DE
:10065000089584E98093BC00ECEBF0E0808184FD98
:10066000FDCF0895CF93C82FC3DF8EE7D0DF8C2F47
:100670008860DEDFEEDFCF910895CF93C091000256
:100680009091AD09C92BC82B8C2F8460EBDF8C2F88
:100690008B7FE8DF2FEF80E792E021508040904091
:1006A000E1F700C00000CF910895CF93C82F1092BA
:1006B00000021092AD09807FE0DF8C2F8295807F51
:1006C000DCDFCF91089581E0F0DF2FEF89EF90E03C
:1006D000215080409040E1F700C000000895CF9382
:1006E000C82F81E0809300021092AD098C2F807F8B
:1006F000C4DF8C2F8295807FC0DFCF910895CF9388
:10070000DF93EC018881882341F02196E8DF80EFB8
:100710008A95F1F789918111F9CFDF91CF910895F1
:1007200061DF8FE891E00197F1F700C0000080E001
:1007300099DF9FE728E381E0915020408040E1F776
:1007400000C0000088E2B1DF8FE19EE40197F1F77D
:1007500000C0000088E2A9DF8FE792E00197F1F77F
:1007600000C0000088E2A1DF88E29FDF90EF9A9549
:10077000F1F78CE09ADF8FE99FE00197F1F700C075
:10078000000084E092DF95ED9A95F1F7000008955E
:100790001F920F920FB60F9211240BB60F922F9348
:1007A0003F934F935F936F937F938F939F93AF93F9
:1007B000BF93CF93EF93FF93C091C6008C2F90E02F
:1007C00089DD80912709E82FF0E0E85DF64FC083CE
:1007D0008F5F813218F48093270902C01092270995
:1007E000809126098F5F813218F48093260906C014
:1007F00080E28093260981E080932509FF91EF91A3
:10080000CF91BF91AF919F918F917F916F915F91A8
:100810004F913F912F910F900BBE0F900FBE0F90F5
:100820001F9018951F920F920FB60F9211240BB6BE
:100830000F928F939F93EF93FF939091CE0090939D
:10084000210880912508E82FF0E0EA5DF74F9083BA
:100850008F5F80932508809123088F5F8093230802
:1008600080932208FF91EF919F918F910F900BBE83
:100870000F900FBE0F901F90189590912408E92FAC
:10088000F0E0EA5DF74F80819F5F9093240890919C
:100890002308992319F09150909323080895E2E2D8
:1008A000F7E001900020E9F73197E252F740EF3F7F
:1008B000F10534F4BC0182E297E00E94010E9C0134
:1008C000C90108958F929F92AF92BF92CF92DF920B
:1008D000EF92FF921F93CF93DF93EC016B01E0DC6B
:1008E0004B015C018FEFE2E2F7E0DF011D928A9598
:1008F000E9F710E0E12CF12CD3DCDC01CB01881905
:100900009909AA09BB098C159D05AE05BF0580F4A0
:1009100080912308882381F3B0DFE12FF0E0EE5DC2
:10092000F84F80831F5FCE01BADF892B29F305C002
:10093000111106C082E090E005C081E090E002C0A5
:1009400080E090E0DF91CF911F91FF90EF90DF90DA
:10095000CF90BF90AF909F908F90089581E392E0E9
:1009600044DD68EE73E08EE392E0ACDF019741F581
:100970006AE370E082E297E00E94DC0D009719F1D3
:10098000FC01818190E0C09790932107809320071C
:10099000019719F48EE592E0A5DC809120079091F3
:1009A0002107029719F481E492E09CDC80912007F2
:1009B00090912107039739F487E592E093CC08954D
:1009C00082E297E08FCC089585E792E00EDD68EE35
:1009D00073E08EE392E076DF0197B9F46AE370E0AA
:1009E00082E297E00E94DC0D009791F0FC0181818A
:1009F00090E0C09721F482E892E074CC08950197CA
:100A000039F48CEA92E06ECC089582E297E06ACCE9
:100A100008950F931F93CF93DF93CDB7DEB76497FD
:100A20000FB6F894DEBF0FBECDBF88ED92E0DDDCDF
:100A300068EE73E08EE392E045DF019769F564EEBE
:100A400072E082E297E00E94010E892B19F08AEE93
:100A500092E048DC6EEF72E082E297E00E94010EC5
:100A60000097E9F08C01085F1F4F62E270E0C80157
:100A70000E94DC0DAC01401B510BB801CE01019668
:100A80000E94E70D86E093E02DDCCE0101962ADC82
:100A90008CE293E027DC03C082E297E023DC6496DB
:100AA0000FB6F894DEBF0FBECDBFDF91CF911F917F
:100AB0000F910895EF92FF920F931F93CF93DF93BF
:100AC000CDB7DEB7A8970FB6F894DEBF0FBECDBF87
:100AD000E82EF92E7F936F939F938F9389E193E094
:100AE0009F938F938E010F5F1F4F1F930F930E9451
:100AF000570EC8017ADC60E87EE38EE392E0E2DE26
:100B00000FB6F894DEBF0FBECDBF019751F48EE251
:100B100093E0E8DB8E2D9F2DE5DB8CE293E0E2DBBA
:100B200031C086E493E0DEDB8E2D9F2DDBDB8CE293
:100B300093E0D8DB6EEF72E082E297E00E94010E54
:100B4000009701F1FC01078110E000531109013009
:100B5000110521F48FE593E0C5DB0EC002301105CD
:100B600021F484E793E0BEDB0DC00330110521F4CE
:100B700085E893E0B7DB06C00430110519F480EA7C
:100B800093E0B0DBA8960FB6F894DEBF0FBECDBFE2
:100B9000DF91CF911F910F91FF90EF900895DEDECE
:100BA00013DF64EF74E08EEF94E084DF32DF8EE0D9
:100BB00095E098CB08950F931F93CF93DF93CDB714
:100BC000DEB7C456D1090FB6F894DEBF0FBECDBF55
:100BD0007F936F939F938F938EE195E09F938F9375
:100BE0008E010F5F1F4F1F930F930E94570EC80176
:100BF000FCDB60ED77E08EE392E064DE0FB6F89404
:100C0000DEBF0FBECDBF8130910521F48AE395E0B0
:100C100069DB05C0892B19F48FE595E063DBCC59BE
:100C2000DF4F0FB6F894DEBF0FBECDBFDF91CF917F
:100C30001F910F910895E9E4F9E024E6DF011D9288
:100C40002A95E9F77F936F939F938F9388E895E0B8
:100C50009F938F93FF93EF930E94570E89E499E03F
:100C600041DB8CE293E03EDB8DB79EB708960FB672
:100C7000F8949EBF0FBE8DBF89E499E008950F934D
:100C80001F93CF93DF93CDB7DEB72F970FB6F894AE
:100C9000DEBF0FBECDBF8A01DFD1C801CCDFFC01B2
:100CA00001900020E9F73197E81BF90BFF93EF93D0
:100CB00080EA95E09F938F938E010F5F1F4F1F93E4
:100CC0000F93F5D7C80191DB60ED77E080EB95E0FD
:100CD000F9DD82E297E006DB0F900F900F900F9006
:100CE0000F900F902F960FB6F894DEBF0FBECDBFBA
:100CF000DF91CF911F910F9108950F931F93CF9381
:100D0000DF93CDB7DEB7C456D1090FB6F894DEBF76
:100D10000FBECDBF8E010F5F1F4F24E6F801119269
:100D20002A95E9F77F936F939F938F9388E895E0D7
:100D30009F938F931F930F93BAD7C801D3DAC8013B
:100D400054DB60ED77E082EB95E0BCDD8CE293E074
:100D5000C9DAFFEF21EE84E0F15020408040E1F756
:100D600000C0000082E297E0BDDA0FB6F894DEBF63
:100D70000FBECDBFCC59DF4F0FB6F894DEBF0FBE0C
:100D8000CDBFDF91CF911F910F91089525982D9A96
:100D900026982E9A0895E1EBF0E0808182608083AE
:100DA0001092B200E0E7F0E0808181608083789467
:100DB000089580911F07882319F0813059F014C0DD
:100DC0001D991AC0EBE1F7E0808191810196918332
:100DD000808312C01E990DC0EBE1F7E08281938100
:100DE00001969383828305C08F5F80931F078230B3
:100DF00030F010921F07089581E080931F07089537
:100E00001F920F920FB60F9211240BB60F922F93D1
:100E10003F934F935F936F937F938F939F93AF9382
:100E2000BF93EF93FF9385B1805885B9C2DFFF91DF
:100E3000EF91BF91AF919F918F917F916F915F9152
:100E40004F913F912F910F900BBE0F900FBE0F90BF
:100E50001F9018959EDBA1DB262F372F462F572F8B
:100E6000682F792F40931607509317076093180740
:100E7000709319079F938F933F932F9381E092E094
:100E80009F938F938AE197E09F938F9310D780E889
:100E90000CDC85ED8A95F1F7000089ED95E02FDCFB
:100EA00080EC03DC95ED9A95F1F700008AE197E07C
:100EB00026DC85ECFADB85ED8A95F1F7000082EE01
:100EC00095E01DDC8DB79EB708960FB6F8949EBFCF
:100ED0000FBE8DBF089560E074E284EF90E0C9D941
:100EE000EFD971DA87EE95E0FDD98CE293E0FAD97B
:100EF00056DEEBE1F7E011821082138212824BDFA3
:100F00000FDCE1DB8AE396E0FADB80ECCEDB25ED5B
:100F10002A95F1F7000085E496E0F1DB8FEF93ED81
:100F200020E3815090402040E1F700C000002EDF18
:100F3000CADB78948FDF8AE197E0D4D98CE293E022
:100F4000D1D960E570E08DE496E035DE609116075A
:100F500070911707809118079091190741EB56E09F
:100F60008EDE609116077091170780911807909197
:100F7000190772D081EB96E0C0DE8FEF93ED20E38E
:100F8000815090402040E1F700C00000D3CF50587E
:100F9000BB27AA270ED0E5C0D6D030F0DBD020F09A
:100FA00031F49F3F11F41EF4CBC00EF4E095E7FB43
:100FB000C1C0E92FE7D080F3BA176207730784072F
:100FC000950718F071F49EF5FFC00EF4E0950B2E16
:100FD000BA2FA02D0B01B90190010C01CA01A0018B
:100FE0001124FF27591B99F0593F50F4503E68F1E6
:100FF0001A16F040A22F232F342F4427585FF3CF27
:10100000469537952795A795F0405395C9F77EF4F7
:101010001F16BA0B620B730B840BBAF09150A1F040
:10102000FF0FBB1F661F771F881FC2F70EC0BA0FC6
:10103000621F731F841F48F4879577956795B7954E
:10104000F7959E3F08F0B3CF9395880F08F0992746
:10105000EE0F97958795089504D06894B111B5C0A7
:10106000089598D088F09F5790F0B92F9927B751DD
:10107000A0F0D1F0660F771F881F991F1AF0BA955C
:10108000C9F712C0B13081F09FD0B1E008959CC083
:10109000672F782F8827B85F39F0B93FCCF3869552
:1010A00077956795B395D9F73EF4909580957095AF
:1010B00061957F4F8F4F9F4F0895E89409C097FB2C
:1010C0003EF490958095709561957F4F8F4F9F4F1F
:1010D0009923A9F0F92F96E9BB279395F695879563
:1010E00077956795B795F111F8CFFAF4BB0F11F426
:1010F00060FF1BC06F5F7F4F8F4F9F4F16C08823CD
:1011000011F096E911C0772321F09EE8872F762F02
:1011100005C0662371F096E8862F70E060E02AF043
:101120009A95660F771F881FDAF7880F969587952F
:1011300097F9089597F99F6780E870E060E0089557
:101140009FEF80EC089500240A94161617061806DF
:101150000906089500240A941216130614060506BB
:101160000895092E0394000C11F4882352F0BB0F4C
:1011700040F4BF2B11F460FF04C06F5F7F4F8F4FAF
:101180009F4F089557FD9058440F551F59F05F3FEA
:1011900071F04795880F97FB991F61F09F3F79F099
:1011A00087950895121613061406551FF2CF46951B
:1011B000F1DF08C0161617061806991FF1CF86959D
:1011C0007105610508940895E894BB276627772781
:1011D000CB0197F908950BD0C4CFB5DF28F0BADF63
:1011E00018F0952309F0A6CFABCF1124EECFCADFBC
:1011F000A0F3959FD1F3950F50E0551F629FF0012A
:10120000729FBB27F00DB11D639FAA27F00DB11D82
:10121000AA1F649F6627B00DA11D661F829F22270B
:10122000B00DA11D621F739FB00DA11D621F839F92
:10123000A00D611D221F749F3327A00D611D231F68
:10124000849F600D211D822F762F6A2F11249F57B6
:1012500050408AF0E1F088234AF0EE0FFF1FBB1FD9
:10126000661F771F881F91505040A9F79E3F510578
:1012700070F060CFAACF5F3FECF3983EDCF3869529
:1012800077956795B795F795E7959F5FC1F7FE2B23
:10129000880F911D9695879597F908952F923F9203
:1012A0004F925F926F927F928F929F92AF92BF9276
:1012B000CF92DF92EF92FF920F931F93CF93DF9322
:1012C000CDB7DEB760970FB6F894DEBF0FBECDBFC7
:1012D0007C011B016A01FC0117821682838181FF58
:1012E0002AC39E012F5F3F4F3901F7019381F1011E
:1012F00093FD859193FF81911F01882309F417C302
:10130000853239F493FD859193FF81911F018532D8
:1013100031F4B70190E08FD456016501E6CF10E0BB
:10132000512C912CFFE1F915D8F08B3279F038F47B
:10133000803279F08332A1F4F92DF0612EC08D3224
:1013400061F0803369F4292D21602DC0392D326080
:10135000932E892D8460982E2AC0E92DE86015C04F
:1013600097FC2DC020ED280F2A3088F496FE06C089
:101370003AE0139F200D1124122F19C08AE0589EC5
:10138000200D1124522EE92DE0629E2E10C08E32C7
:1013900031F496FCCCC2F92DF0649F2E08C08C3637
:1013A00021F4292D2068922E02C0883641F4F101E3
:1013B00093FD859193FF81911F018111B3CF9BEB29
:1013C000980F933020F4992D9061805E07C09BE9BF
:1013D000980F933008F059C1992D9F7E96FF16E023
:1013E0009F73992E853619F49064992E08C086361D
:1013F00021F4392F3068932E02C01111115097FE3D
:1014000007C01C3350F444244394410E27E00BC022
:10141000183038F027E017E005C027E09CE3492E9C
:1014200002C0212F412C560184E0A80EB11CF60108
:101430006081718182819381042DA301DAD26C01D4
:10144000F981FC87F0FF02C0F3FF06C091FC06C0E3
:1014500092FE06C000E205C00DE203C00BE201C02F
:1014600000E08C858C7019F0011143C280C297FE98
:1014700010C04C0CFC85F4FF04C08A81813309F450
:101480004A94141474F528E0241578F588E0482E61
:101490002CC096FC2AC0812F90E08C159D059CF0F5
:1014A0003CEFC3163FEFD30674F0892D8068982E69
:1014B0000AC0E2E0F0E0EC0FFD1FE10FF11D8081BA
:1014C000803319F411501111F4CF97FE0EC044244B
:1014D0004394410E812F90E0C816D9062CF41C19B4
:1014E00004C04424439401C010E097FE06C01C14BD
:1014F0001D0434F4C601019605C085E090E002C0E9
:1015000081E090E001110196112331F0212F30E0AC
:101510002F5F3F4F820F931F252D30E082179307D7
:1015200014F4581A01C0512C892D897041F45520AA
:1015300031F0B70180E290E07ED35A94F8CF0023D7
:1015400021F0B701802F90E076D393FC08C055209E
:1015500031F0B70180E390E06ED35A94F8CF97FE54
:101560004AC04601D7FE02C0812C912CC6018819C1
:101570009909F301E80FF91FFE87ED8796012419F9
:101580003109388B2F87012F10E011950195110932
:101590003FEF8316930621F4B7018EE290E04BD320
:1015A000C814D9044CF08F8598898815990524F4BE
:1015B000ED85FE85818101C080E3F1E08F1A9108FD
:1015C0002D853E852F5F3F4F3E872D8780169106E4
:1015D00024F0B70190E02FD3DBCFC814D90441F435
:1015E0009A81963320F4953319F43C8534FF81E3D6
:1015F000B70190E048C08A81813319F09C859F7EB5
:101600009C87B70190E017D3111105C094FC16C058
:1016100085E690E015C0B7018EE290E00CD31E5F26
:1016200082E001E0080FF301E80FF11D8081B701AE
:1016300090E001D3802F0113F4CFE8CF85E490E050
:10164000B701F9D2D7FC06C0C114D10441F4EC852E
:10165000E4FF05C0D194C194D1088DE201C08BE2B2
:10166000B70190E0E8D280E32AE0C216D1042CF062
:101670008F5FFAE0CF1AD108F7CFB70190E0DBD245
:10168000B701C601C096D7D249C1833631F083373E
:1016900079F0833509F052C01FC0560132E0A30E25
:1016A000B11CF6018081898301E010E0630111C063
:1016B0005601F2E0AF0EB11CF601C080D18096FE5B
:1016C00003C0612F70E002C06FEF7FEFC6018ED2C2
:1016D0008C01F92DFF7713C0560122E0A20EB11C38
:1016E000F601C080D18096FE03C0612F70E002C079
:1016F0006FEF7FEFC60155D28C01F92DF0689F2E58
:10170000F3FD18C0852D90E00817190798F4B7016C
:1017100080E290E090D25A94F5CFF60197FC859143
:1017200097FE81916F01B70190E085D251105A94D4
:10173000015011090115110581F7F0C0843611F02F
:10174000893659F5560197FE09C024E0A20EB11C56
:10175000F60160817181828193810AC0F2E0AF0E4F
:10176000B11CF60160817181072E000C880B990B6A
:10177000F92DFF769F2E97FF09C090958095709563
:1017800061957F4F8F4F9F4FF0689F2E2AE030E08A
:10179000A301BBD2C82EC6183EC0092D853721F43F
:1017A0000F7E2AE030E01DC0097F8F3691F018F4DB
:1017B000883559F0BCC0803719F0883711F0B7C0B0
:1017C000006104FF09C0046007C094FE08C0066001
:1017D00006C028E030E005C020E130E002C020E192
:1017E00032E0560107FF09C084E0A80EB11CF601E3
:1017F000608171818281938108C0F2E0AF0EB11CDB
:10180000F6016081718180E090E0A3017ED2C82E54
:10181000C6180F77902E96FE0BC0092D0E7FC116AD
:1018200050F494FE0AC092FC08C0092D0E7E05C03B
:10183000DC2C092D03C0DC2C01C0D12E04FF0DC00F
:10184000FE01EC0DF11D8081803311F4097E09C089
:1018500002FF06C0D394D39404C0802F867809F089
:10186000D39403FD10C000FF06C01C2DD51478F4DE
:10187000150D1D190CC0D51450F4B70180E290E08D
:10188000DAD1D394F8CFD51410F45D1801C0512CDF
:1018900004FF0FC0B70180E390E0CDD102FF16C076
:1018A00001FD03C088E790E002C088E590E0B70141
:1018B0000CC0802F867851F001FF02C08BE201C07E
:1018C00080E207FD8DE2B70190E0B5D1C11630F49A
:1018D000B70180E390E0AFD11150F8CFCA94F30183
:1018E000EC0DF11D8081B70190E0A5D1C110F6CFBC
:1018F00015C0F4E0F51550F584E0581A93FE1EC0AB
:10190000011125C02C8523FF27C004EE10E0392DDE
:101910003071932EF8018491811121C0552009F472
:10192000FCCCB70180E290E086D15A94F7CFF70162
:101930008681978123C08FEF9FEF20C0B70180E29F
:1019400090E079D15A945110F9CFDACF512CB701E8
:10195000802F90E070D1D6CF08EE10E0D8CF911054
:101960008052B70190E067D10F5F1F4FD3CF23E0C4
:10197000251510F483E0C1CF512CC4CF60960FB66B
:10198000F894DEBF0FBECDBFDF91CF911F910F91B5
:10199000FF90EF90DF90CF90BF90AF909F908F908F
:1019A0007F906F905F904F903F902F900895A1E2AD
:1019B0001A2EAA1BBB1BFD010DC0AA1FBB1FEE1FC9
:1019C000FF1FA217B307E407F50720F0A21BB30B14
:1019D000E40BF50B661F771F881F991F1A9469F790
:1019E00060957095809590959B01AC01BD01CF01EC
:1019F0000895283008F027E03327DA01990F311DC8
:101A000087FD916000966105710539F432602E5FA3
:101A10003D9330E32A95E1F708959F3F30F08038F9
:101A20007105610509F03C5F3C5F3D93913008F022
:101A30008068911DDF93CF931F930F93FF92EF92D6
:101A4000192F987F9695E92F96959695E90FFF2780
:101A5000EA5BFE4F99273327EE24FF24A701E70115
:101A600005900894079428F4360FE71EF81E491FC6
:101A7000511D660F771F881F991F0694A1F70590C7
:101A8000079428F4E70EF81E491F561FC11D770F53
:101A9000881F991F661F0694A1F70590079428F4E4
:101AA000F80E491F561FC71FD11D880F991F661FAB
:101AB000771F0694A1F70590079420F4490F561F4D
:101AC000C71FD81F990F661F771F881F0694A9F795
:101AD00084911095177041F0D695C7955795479505
:101AE000F794E7941A95C1F7ECEEF0E0689415903E
:101AF000159135916591959105907FE27395E11867
:101B0000F10A430B560BC90BD009C0F7E10CF11ECB
:101B1000431F561FC91FD01D7EF4703311F48A95E0
:101B2000E6CFE894015030F0080F0AF400270217BE
:101B300008F4202F2395022F7A3328F079E37D9340
:101B40002A95E9F710C07D932A9589F60694979512
:101B50006795379517951794E118F10A430B560BC3
:101B6000C90BD00998F023957E9173957A3308F0CC
:101B700070E37C932013B8F77E9170617D9330F011
:101B8000839571E37D9370E32A95E1F71124EF903B
:101B9000FF900F911F91CF91DF91992787FD90952D
:101BA0000895FC010590615070400110D8F78095B0
:101BB00090958E0F9F1F0895FC018191861721F04B
:101BC0008823D9F7992708953197CF010895FB010C
:101BD000DC014150504048F001900D920020C9F7BF
:101BE00001C01D9241505040E0F70895FC01615042
:101BF000704001900110D8F7809590958E0F9F1F2F
:101C00000895FB0151915523A9F0BF01DC014D91CD
:101C100045174111E1F759F4CD010190002049F039
:101C20004D9140154111C9F3FB014111EFCF81E006
:101C300090E0019708950F931F93CF93DF93FB01DB
:101C4000238121FD03C08FEF9FEF2CC022FF16C020
:101C500046815781248135814217530744F4A0817E
:101C6000B1819D012F5F3F4F318320838C9326816B
:101C700037812F5F3F4F3783268314C08B01EC01E0
:101C8000FB010084F185E02D1995892BE1F6D8013F
:101C900016968D919C911797019617969C938E930B
:101CA0001697CE01DF91CF911F910F9108950F9359
:101CB0001F93CF93DF93CDB7DEB72E970FB6F8946F
:101CC000DEBF0FBECDBF0E891F8986E08C831A83CD
:101CD00009838FEF9FE79E838D83AE01465E5F4F42
:101CE000688D798DCE010196D9DAEF81F885E00F04
:101CF000F11F10822E960FB6F894DEBF0FBECDBF37
:101D0000DF91CF911F910F910895FA01AA272830F2
:101D100051F1203181F1E8946F936E7F6E5F7F4FB8
:101D20008F4F9F4FAF4FB1E03ED0B4E03CD0670F34
:101D3000781F891F9A1FA11D680F791F8A1F911D87
:101D4000A11D6A0F711D811D911DA11D20D009F4D7
:101D500068943F912AE0269F11243019305D319319
:101D6000DEF6CF010895462F4770405D4193B3E002
:101D70000FD0C9F7F6CF462F4F70405D4A3318F0A9
:101D8000495D31FD4052419302D0A9F7EACFB4E05A
:101D9000A6959795879577956795BA95C9F7009712
:101DA0006105710508959B01AC010A2E06945795B3
:101DB000479537952795BA95C9F7620F731F841F0A
:0A1DC000951FA01D0895F894FFCFB1
:101DCA00012566006572726F7220320A00300020A7
:101DDA004E756D626572206F662063686172616319
:101DEA0074657273207265636569766564203A204A
:101DFA000041542B43574D4F44453F0D0A004F4B6A
:101E0A0000536F66744150206D6F64652073656C72
:101E1A0065637465640A00536F667441502B53748A
:101E2A006174696F6E206D6F64652073656C65639C
:101E3A007465640A0041542B4349504D55583F0D6F
:101E4A000A0053696E676C6520636F6E6E65637412
:101E5A00696F6E202D20636F6E666967757265649F
:101E6A0020617320636C69656E740A006D756C7409
:101E7A0069706C6520636F6E6E656374696F6E203E
:101E8A002D20636F6E6669677572656420617320C1
:101E9A007365727665720A0041542B43574A415062
:101EAA003F0D0A004E6F204150004E6F20415020D6
:101EBA00697320636F6E6E65637465640A002B43F1
:101ECA00574A41503A00436F6E6E656374656420E9
:101EDA00746F20576966693A0041542B43574A4147
:101EEA00503D222573222C222573220D0A005769A0
:101EFA0046692069732020636F6E6E65637465643A
:101F0A0020746F203A004572726F7220696E2063E6
:101F1A006F6E6E656374696E6720746F203A004352
:101F2A006F6E6E656374696F6E2074696D656F7527
:101F3A0074200A0057726F6E672070617373776F2F
:101F4A007264200A0063616E6E6F742066696E6443
:101F5A0020746865207461726765742041500A00B4
:101F6A00636F6E6E656374696F6E206661696C6516
:101F7A0064200A0041542B43575141500D0A00571F
:101F8A0049464920444953434F4E4E45435400570E
:101F9A004946492069732020646973636F6E6E65D0
:101FAA006374656420200A005749464920697320F2
:101FBA00616C726561647920646973636F6E6E65C2
:101FCA0063746564200A0041542B43494653520DF9
:101FDA000A00495020616464726573732069732032
:101FEA000A002B43494653523A5354414950004937
:101FFA00502061646472657373206F662053746144
:10200A0074696F6E206973203A002B434946535214
:10201A003A5354414D4143000A204D6163206164A3
:10202A006472657373206F662053746174696F6E8E
:10203A00206973203A002B43494653523A4150498A
:10204A00500049502061646472657373206F662082
:10205A00536F66744150206973203A002B434946F6
:10206A0053523A41504D4143000A204D6163206169
:10207A00646472657373206F6620536F667441508F
:10208A00206973203A0041542B43574C41500D0AA2
:10209A000057694669206E6574776F726B73206E9C
:1020AA00656172206172653A200A0041542B5253CD
:1020BA00540D0A004D616E736935343831004A692E
:1020CA006F466962657220322E3467687A000A5355
:1020DA004554415020436F6D6D616E640A0041544E
:1020EA002B43495053544152543D22544350222CBD
:1020FA00222573222C25750D0A000A205375636365
:10210A0065737366756C6C7920636F6E6E65637444
:10211A00656420746F20736572766572200A000AFE
:10212A0020416C726561647920636F6E6E656374B9
:10213A00656420746F20736572766572200A0047A1
:10214A0045542025730D0A004745542025733D2523
:10215A00750D0A004745542025733D25730D0A0065
:10216A0041542B43495053454E443D25750D0A00B1
:10217A003E00434C4F53450054656D702043616CDB
:10218A0069627261742000476574746F627974655C
:10219A000053706172726F770054656D7065723AA0
:1021AA00200020202020002A2A2A2A2A2A2A2A2A0B
:1021BA002A2A2A2A2A2A2A2A2A45535038323636DD
:1021CA0020415420436F6D6D616E6473206669729D
:1021DA006D7761726520287573696E6720656D6217
:1021EA0065646465642043292A2A2A2A2A2A2A2A13
:1021FA002A2A2A2A2A2A2A2A2A00476574746F62F6
:10220A007974653A004C43445F493243006170690E
:10221A002E7468696E67737065616B2E636F6D00EB
:10222A0000000000000000000000000000000000A4
:10223A000000000000000000000000000000000094
:10224A000000000000000000000000000000000084
:10225A000000000000000000000000000000000074
:10226A000000000000000000000000000000000064
:10227A00002F7570646174653F6170695F6B657981
:10228A003D4B383650544E394F50414E5757384DC2
:10229A0046266669656C6431000000000000000093
:1022AA000000000000000000000000000000000024
:1022BA000000000000000000000000000000000014
:1022CA000000000000000000000000000000000004
:0622DA00000000000000FE
:00000001FF
